:100000000C9465000C948D000C948D000C948D0064
:100010000C948D000C948D000C948D000C948D002C
:100020000C948D000C948D000C948D000C948D001C
:100030000C948D000C948D000C948D000C948D000C
:100040000C943E180C948D000C9471170C944B1763
:100050000C948D000C948D000C948D000C948D00EC
:100060000C948D000C948D007203FA055903B608A8
:10007000DC08980CC90D4003000000002400270094
:100080002A0000000000250028002B0004040404BE
:100090000404040402020202020203030303030332
:1000A000010204081020408001020408102001020F
:1000B00004081020000000080002010000030407EB
:1000C0000000000000000000D61D11241FBECFEF6D
:1000D000D8E0DEBFCDBF21E0A2E2B1E001C01D92B9
:1000E000AC3CB207E1F711E0A0E0B1E0ECECF3E4E6
:1000F00002C005900D92A232B107D9F710E0C5E613
:10010000D0E004C02197FE010E949120C436D1079F
:10011000C9F70E949A1D0C94E4210C940000CF931F
:10012000DF93CDB7DEB7C15BD2400FB6F894DEBF28
:100130000FBECDBFE0913201F091330182E08083A8
:10014000E0912E01F0912F011082E0913001F091A9
:10015000310181E0808310923A01E0913601F09103
:10016000370186E08083E0913401F0913501808190
:1001700080618083E0913401F09135018081886055
:100180008083E0913401F091350180818068808323
:10019000E0913401F091350180818F7D8083FE01F3
:1001A000E75BFD4FCF0140968F0111921192E81746
:1001B000F907D9F782E5C258DD4F8883CE57D24080
:1001C00086E0C158DD4F8883CF57D240C458DD4FF9
:1001D0001882CC57D240C358DD4F1882CD57D24039
:1001E0008FEFC758DD4F8883C957D240C658DD4FBF
:1001F0008883CA57D240C558DD4F8883CB57D24039
:1002000088E191E00E94AC16CE0101960E94B21BDB
:100210008823D1F32B813C812F3047E2340739F119
:100220008D819E81FC01EE0FFF1FE00FF11F3183D6
:10023000208361E772E06C0F7D1F860F971FA985F1
:10024000BA85ECE7F2E0EC0FFD1FAE0FBF1FEF81A8
:10025000F8852EE732E02C0F3D1FE20FF31F3C9193
:100260002081230FDC012C938AE191E0CBCF8AE13E
:1002700091E00E94AC16FE01E755FE4FC058DD4FDD
:10028000F983E883C058D2407F01CC56DD4F1982F4
:100290001882C459D240CE0101960E94B21B882315
:1002A000D1F38B819C818F3037E29307F1F1D70135
:1002B00011969C938E938D819E8113969C938E9321
:1002C00012978F81CC56DD4FE881F981C459D24015
:1002D000EF2B31F4C75DDD4F8883C952D2400FC088
:1002E000CC56DD4FE881F981C459D240F595E795A8
:1002F00029E232E02C0F3D1FE20FF31F8083CC5622
:10030000DD4F48815981C459D2404E5F5F4FCC5672
:10031000DD4F59834883C459D2408CE191E00E945B
:10032000AC1654E0E50EF11CB6CF8CE191E00E94D2
:10033000AC16CF58DD4F2881C157D24030E0D801EC
:100340006D917C9140E0CE018F5F9E4F0E94361BE5
:10035000CE58DD4F2881C257D24030E0F80162818B
:10036000738141E081E091E08C0F9D1F45960E94D2
:10037000361BCD58DD4F2881C357D24030E0D8011D
:1003800014966D917C91159742E081E091E08C0F7D
:100390009D1F8A960E94361BCC58DD4F2881C4577A
:1003A000D24030E0F8016681778143E081E091E05E
:1003B0008C0F9D1FCF960E94361BCB58DD4F288196
:1003C000C557D24030E0D80118966D917C911997AD
:1003D00044E0CE018B5A9E4F0E94361BCA58DD4F17
:1003E0002881C657D24030E0F8016285738545E028
:1003F000CE0186599E4F0E94361BC958DD4F288179
:10040000C757D24030E0D8011C966D917C911D9762
:1004100046E0CE0181589E4F0E94361BC858DD4FE2
:100420002881C857D24030E0F8016685778547E0DB
:10043000CE018C569E4F0E94361BFE01E755FE4FA3
:1004400020E030E0C257DD4F19821882CE58D240EA
:10045000CC56DD4F68817981C459D24026173707C1
:10046000F4F48081918142815381841B950B97FF25
:1004700003C09195819591090196C257DD4F48813E
:100480005981CE58D240480F591FC257DD4F59836A
:100490004883CE58D2402E5F3F4F3496D9CF8E013D
:1004A0000F5F1E4F780176E0E70EF11CDD24D39438
:1004B000D80112968D919C911397892B89F0F701A1
:1004C000808187FD07C061E00E94A317D7018C914E
:1004D0000E940417F7013597D082C8010E946B1A59
:1004E0000B5E1F4FB5E1EB0EF11CC058DD4FE881EC
:1004F000F981C058D2400E171F07D1F61F921F92E4
:10050000CB56DD4FF881C559D240FF93CC56DD4F15
:100510002881C459D2402F938FEF8F938EEF8F9302
:10052000C157DD4F3881CF58D2403F93C257DD4F7E
:100530004881CE58D2404F933E0157ED651A5DEF8A
:10054000750A7F926F92BE0167557E4F4B01CC5664
:10055000DD4FA880B980C459D240CE018F5F9E4F35
:100560006C0125E0E22EF12C0FEF10E02FEF30E0D0
:100570004FEF50E0C257DD4F68817981CE58D240AD
:1005800080E090E00E946B1C8EE191E00E94AC162E
:10059000CC56DD4FA881B981C459D240B595A795F5
:1005A000CA56DD4FB983A883C659D240CC56DD4F19
:1005B00088819981C459D2400297FC01EE0FFF1F38
:1005C000C655DD4FF983E883CA5AD2400FB6F89476
:1005D000DEBF0FBECDBFC257DD4F48815981CE5817
:1005E000D240CE55DD4F59834883C25AD240C456BB
:1005F000DD4F59834883CC59D240C056DD4F198214
:100600001882C05AD24068E070E0C057DD4F79834D
:100610006883C059D240C656DD4F19821882CA5924
:10062000D240C657DD4F19821882CA58D240C457EB
:10063000DD4F19821882CC58D240CE57DD4F7982D7
:100640006882C258D24085E692E08C0F9D1F0C96BE
:10065000C455DD4F99838883CC5AD240CE01019690
:100660000E94B21B8823D1F3E981FA813197E830E7
:10067000F10510F00C949A15EC5CFF4F0C9491204E
:10068000CA56DD4F68807980C659D240660C771C07
:10069000CA56DD4F48805980C659D240CE55DD4FED
:1006A00028803980C25AD24094E0C92ED12C0C94B3
:1006B0002412CA56DD4FA880B980C659D24091E0B5
:1006C000A91A90E8B90AAA0CBB1CCA56DD4FE880EB
:1006D000F980C659D240CE55DD4F68807980C25A24
:1006E000D240CFC3CB59DD4F188219821A821B82A8
:1006F000C556D240C759DD4F188219821A821B8213
:10070000C956D240C359DD4F188219821A821B8202
:10071000CD56D240C75ADD4F188219821A821B82E9
:10072000C955D240C35ADD4F188219821A821B82E2
:10073000CD55D240CF59DD4F188219821A821B82C3
:10074000C156D2406B857C85072E000C880B990B17
:100750000E940A1E20E030E048EC52E40E94AE1FE6
:10076000CC57DD4F688379838A839B83C458D240FA
:100770008E0107581D4F5E01A9E0AA0EB11CFE01B3
:10078000EB59FD4F4F019E01275A3D4F6901AE01C4
:100790004D5F5F4F7A01D8016D918D0170E080E06F
:1007A00090E00E94081E2B013C01F70161917191BC
:1007B0007F01072E000C880B990B0E940A1E9B01DB
:1007C000AC01C301B2010E94411FCC57DD4F28810B
:1007D00039814A815B81C458D2400E94691ED6018A
:1007E0006D937D938D939D936D01F4014192519290
:1007F000619271924F01EA14FB0469F685E1C057DA
:10080000DD4F48815981C059D240849F9001859F16
:10081000300D1124CE56DD4F39832883C259D24082
:100820008B809C80AD80BE80EF80F884B401990CF1
:10083000880B990B0E940A1E9B01AC01CC24C39427
:10084000D12CCB59DD4F688179818A819B81C55636
:10085000D2400E94031E882311F0C12CD12CB50177
:10086000BB0C880B990B0E940A1E9B01AC0101E096
:1008700010E0C759DD4F688179818A819B81C95613
:10088000D2400E94031E882311F000E010E0C00E49
:10089000D11EB701FF0C880B990B0E940A1E9B0109
:1008A000AC0101E010E0C359DD4F688179818A8194
:1008B0009B81CD56D2400E94031E882311F000E098
:1008C00010E00C0D1D1D0330110509F482C18E01CD
:1008D000075A1D4F9E012D5F3F4FC857DD4F39838B
:1008E0002883C858D240AE014B595D4F3A01D80118
:1008F0002D913D914D915C91F301608171818281D7
:1009000093810E94411F1B012C01D3016D937D93A4
:100910008D939C931397C857DD4FE881F981C85890
:10092000D24061917191C857DD4FF983E883C8586F
:10093000D240072E000C880B990B0E940A1E4B0117
:100940005C019B01AC01C201B1010E94411FCC5767
:10095000DD4F288139814A815B81C458D2400E9491
:10096000691E6B017C01D8016D937D938D939D93DE
:100970008D0120E030E0A901C201B1010E94031EF7
:1009800087FF05C0F301108211821282138220E0DA
:1009900030E04FE753E4D3016D917D918D919C91AF
:1009A0000E94562018164CF480E090E0AFE7B3E4C4
:1009B000F30180839183A283B38320E030E0A90117
:1009C000C701B6010E94031E87FF11C020E030E07E
:1009D00040E85FEBC701B6010E94562087FD16C0B4
:1009E000D3018D929D92AD92BC9213970FC020E0DF
:1009F00030E040E85FE3C701B6010E94031E18160D
:100A00002CF0F30180829182A282B382F4E06F0E17
:100A1000711CC455DD4F28813981CC5AD2406216F1
:100A2000730609F064CFC359DD4F688179818A81EB
:100A30009B81CD56D2400E9420202B013C01C759FA
:100A4000DD4F688179818A819B81C956D2400E949D
:100A500020209B01AC01CB59DD4F688179818A81CF
:100A60009B81C556D240C255DD4F2883CE5AD24015
:100A7000C155DD4F3883CF5AD240C055DD4F488332
:100A8000C05BD240CF54DD4F5883C15BD2400E943F
:100A90002020C556DD4FA881CB59D240AF93C65612
:100AA000DD4FB881CA59D240BF93C956DD4FE881A6
:100AB000C759D240EF93CA56DD4FF881C659D2408C
:100AC000FF93C557DD4FA881CB58D240AF93C6578F
:100AD000DD4FB881CA58D240BF93C157DD4FE8817E
:100AE000CF58D240EF93C257DD4FF881CE58D24055
:100AF000FF93CD57DD4FA881C358D240AF93CE5757
:100B0000DD4FB881C258D240BF93FE01E755FE4F7A
:100B10004F01CC56DD4FA880B980C459D240DE01C8
:100B2000AF5FBE4F6D01E12CF12C8201C255DD4F4C
:100B30002881CE5AD240C155DD4F3881CF5AD2409C
:100B4000AB01C456DD4F68817981CC59D240C4577E
:100B5000DD4F88819981CC58D2400E946B1C0FB622
:100B6000F894DEBF0FBECDBFC057DD4F088119819D
:100B7000C059D240C056DD4FE881F981C05AD240F9
:100B8000E017F107ECF0CE56DD4F88819981C2590C
:100B9000D2408E0D9F1D21E031E02C0F3D1F820FB2
:100BA000931FDC0112962D913C911397232B11F08A
:100BB0000E946B1A0F5F1F4FB5E1EB0EF11CDACFED
:100BC00069857A85072E000C880B990B0E94041802
:100BD00027CEC758DD4F8882C957D240C658DD4F4F
:100BE000A882CA57D240C558DD4FE882CB57D240C1
:100BF0000C949A156B817C81072E000C880B990B45
:100C00000E940A1E20E030E046EC52E40E94AE1F33
:100C10006B017C01C558DD4F6881CB57D24070E035
:100C200080E090E00E940A1EA70196010E94691EC2
:100C30000E942020CC57DD4F688379838A839B8371
:100C4000C458D240C658DD4F6881CA57D24070E0C0
:100C500080E090E00E940A1EA70196010E94691E92
:100C60000E9420202B013C01C758DD4F6881C957E5
:100C7000D24070E080E090E00E940A1EA701960139
:100C80000E94691E0E942020C556DD4F5881CB5915
:100C9000D2405F93C656DD4FA881CA59D240AF9368
:100CA000C956DD4FB881C759D240BF93CA56DD4FF0
:100CB000E881C659D240EF93C557DD4FF881CB5834
:100CC000D240FF93C657DD4F2881CA58D2402F9398
:100CD000C157DD4F3881CF58D2403F93C257DD4FC7
:100CE0004881CE58D2404F93CD57DD4F5881C358DD
:100CF000D2405F93CE57DD4FA881C258D240AF9308
:100D0000FE01E755FE4F4F01CC56DD4FA880B9805C
:100D1000C459D2409E012F5F3E4F6901E12CF12C56
:100D2000CC57DD4F08811981C458D2409201AB01E4
:100D3000C456DD4F68817981CC59D240C457DD4F0C
:100D400088819981CC58D2400E946B1C85E1C057A4
:100D5000DD4F48815981C059D240849F7001859FE1
:100D6000F00C11240FB6F894DEBF0FBECDBF8A0180
:100D7000C12CD12CC056DD4F28813981C05AD240B8
:100D80002017310714F40C949A15C6018E0D9F1D7F
:100D9000A1E0B1E0AC0FBD1F8A0F9B1FFC012281B7
:100DA0003381232B11F00E946B1A0F5F1F4FF5E167
:100DB000CF0ED11CDFCFC501049649EA51E04C0F9C
:100DC0005D1F480F591FCC57DD4F59834883C458C6
:100DD000D240DA010D911C911501B2E02B0E311CAD
:100DE000E9EAF1E0EC0FFD1F2E0E3F1ED1018D91BF
:100DF0009C91E9EAF1E0EC0FFD1FEA0DFB1DC857DD
:100E0000DD4FF983E883C858D24097012250310959
:100E10006701D594C794290180179107ECF537FF36
:100E200004C0270131E0431A51085594479449E220
:100E300052E04C0F5D1FC40ED51E440E551ED1014D
:100E40002D913C9102171307C4F5F1018081918126
:100E5000CC57DD4FA881B981C458D2402D913C9127
:100E6000821B930B97FF03C0919581959109809503
:100E70009095680E791EB2E0EB1AF108E4E0AE1A24
:100E8000B108C657DD4F28813981CA58D240E216D1
:100E9000F3060CF090CFE6C037FF04C02701F1E065
:100EA0004F1A51085594479429E232E02C0F3D1F08
:100EB000C20ED31E420E531E80C0CC57DD4FA881F8
:100EC000B981C458D2408D919C91F801E81BF90B6F
:100ED000CF01860D971DC457DD4F48815981CC58ED
:100EE000D240841795070CF44EC0C456DD4F68817C
:100EF0007981CC59D240681779070CF444C00217A5
:100F0000130749F5E114F104F1F1D2018C91C857AE
:100F1000DD4FE881F981C858D2406081718121E0BC
:100F200031E02C0F3D1F45E1849F200D311D112420
:100F3000C9010E9488189B01AC01D6018C91B801AF
:100F4000E1E0F1E0EC0FFD1FA5E18A9FE00DF11D4E
:100F50001124CF0116C0F601808188248394982C37
:100F60008C0E9D1EF5E18F9F800C911C1124B80101
:100F700061507109C4010E9488189B01AC01B8013D
:100F8000C4010E94AE190150110959CFCC57DD4F51
:100F9000E881F981C458D24080819181801B910BF6
:100FA000860D971DC457DD4F48815981CC58D240DA
:100FB000841795074CF40F5F1F4FD1012D913C9181
:100FC000201731071CF741CFC456DD4F6881798166
:100FD000CC59D2406817790774F30217130749F503
:100FE000E114F10441F3D2018C91C857DD4FE8813F
:100FF000F981C858D2406081718121E031E02C0F25
:101000003D1F45E1849F200D311D1124C9010E941F
:1010100088189B01AC01D6018C91B801E1E0F1E0A8
:10102000EC0FFD1FA5E18A9FE00DF11D1124CF01FA
:1010300016C0F601808188248394982C8C0E9D1E06
:10104000F5E18F9F800C911C1124B8016F5F7F4FD9
:10105000C4010E9488189B01AC01B801C4010E9420
:10106000AE19A9CFC9010196880F991FE9EAF1E0ED
:10107000EC0FFD1FE80FF91F40815181E7EAF1E015
:10108000EC0FFD1FE80FF91F20813181C657DD4F9E
:1010900088819981CA58D24095958795E9E2F2E016
:1010A000EC0FFD1FE80FF91F8081241735075CF452
:1010B000C457DD4F68817981CC58D240620F731FCD
:1010C0006619770912C0C656DD4F68817981CA5901
:1010D000D240C457DD4F28813981CC58D240621BA1
:1010E000730B61507109640F751F0F812D814B8146
:1010F000A1E0B1E0AC0FBD1FE5E18E9FA00DB11DD9
:101100001124CD010E941A1A85E1C057DD4F2881B4
:101110003981C059D240829F7001839FF00C112405
:101120008901C12CD12CC056DD4FE881F981C05A0C
:10113000D240E017F10714F40C949A15C6018E0DF5
:101140009F1D41E051E04C0F5D1F840F951FDC0196
:1011500012962D913C911397232B11F00E946B1A3C
:101160000F5F1F4FB5E1CB0ED11CDDCF6D817E81AE
:101170002B813C8115E1129FC001139F900D11241A
:101180000B8529854F81A1E0B1E0AC0FBD1F8A0F0F
:101190009B1F0E941A1A2B813C81129FC001139F32
:1011A000900D1124E1E0F1E0EC0FFD1F8E0F9F1F69
:1011B0000E946B1A0C949A15C556DD4FF881CB59D5
:1011C000D240FF93C656DD4F2881CA59D2402F9393
:1011D000C956DD4F3881C759D2403F93CA56DD4FBB
:1011E0004881C659D2404F93C557DD4F5881CB58DF
:1011F000D2405F93C657DD4F6881CA58D2406F9383
:10120000C157DD4F7881CF58D2407F93C257DD4F11
:101210008881CE58D2408F93CD57DD4F9881C358E7
:10122000D2409F93CE57DD4FA881C258D240AF9392
:10123000FE01E755FE4F4F01CC56DD4FA880B98027
:10124000C459D2409E012F5F3E4F6901E12CF12C21
:1012500000E010E020E030E040E050E0C456DD4F18
:1012600068817981CC59D240C457DD4F88819981FA
:10127000CC58D2400E946B1CC657DD4F88809980A5
:10128000CA58D24034E0830E911C8B819C81C65792
:10129000DD4F48815981CA58D240489F5001499F2B
:1012A000B00C589FB00C11246A01CC0CDD1CA9EACB
:1012B000B1E0AC0FBD1FAC0DBD1DEBEAF1E0EC0FD2
:1012C000FD1FEC0DFD1D8D919C9120813181821BB4
:1012D000930B97FF03C09195819591098095909507
:1012E000C656DD4F68817981CA59D240680F791F8F
:1012F000CC55DD4F79836883C45AD240C657DD4F41
:1013000088819981CA58D2400296CE56DD4F998382
:101310008883C259D24096E0C90ED11C0FB6F8940A
:10132000DEBF0FBECDBFC657DD4F48805980CA58BB
:10133000D240CA56DD4F48815981C659D240441522
:1013400055050CF4C5C2C6010497E9EAF1E0EC0FBB
:10135000FD1FE80FF91FCC57DD4FF983E883C45810
:10136000D240029729EA31E02C0F3D1F280F391F88
:10137000C857DD4F39832883C858D240D901ED9032
:10138000FC9020813181C501CC55DD4FE881F98188
:10139000C45AD2408E1B9F0BE216F3060CF02EC1EE
:1013A00097FF03C0919581959109E80EF91E29EAEE
:1013B00031E02C0F3D1F2C0D3D1DC256DD4F3983F2
:1013C0002883CE59D240C601029749EA51E04C0F1A
:1013D0005D1F480F591FCA55DD4F59834883C65AB0
:1013E000D240C2019595879569E272E06C0F7D1F2E
:1013F000680F791FC855DD4F79836883C85AD2407A
:10140000CE56DD4F88819981C259D24095958795F6
:10141000A9E2B2E0AC0FBD1FA80FB91FC856DD4F3F
:10142000B983A883C859D2408B819C81CC57DD4FAA
:10143000E881F981C458D24020813181280F391FB9
:101440002E153F050CF409C2C857DD4FE881F9811C
:10145000C858D24020813181E216F3067CF48B819A
:101460009C81A80EB91EFFEF8F1A9F0A21E88216F1
:1014700091040CF0F2C1E80EF91ED6CFC457DD4F2F
:1014800048815981CC58D240A416B50644F38A0D40
:101490009B1DC456DD4F68817981CC59D2406817B5
:1014A0007907ECF21401220C331C81E090E08C0FE0
:1014B0009D1F280E391E3701D1018D919C918E0DF3
:1014C0009F1D681679065CF6CC57DD4FA881B9815F
:1014D000C458D2408D919C91861597050CF067C039
:1014E000CA55DD4FE881F981C65AD24060817181C9
:1014F000C256DD4FA881B981CE59D2402D913C9181
:1015000086199709621773074CF5C856DD4FE881B5
:10151000F981C859D240308197FF03C091958195D8
:101520009109680F791F61507109C558DD4F088115
:10153000CB57D240C658DD4F2881CA57D240C75832
:10154000DD4F4881C957D24081E091E08C0F9D1F4B
:10155000F5E13F9F800D911D11244AC0C856DD4F13
:10156000A881B981C859D2403C9197FF03C0919599
:1015700081959109681B790B6F5F7F4FC558DD4FCF
:101580000881CB57D240C658DD4F2881CA57D24078
:10159000C758DD4F4881C957D24081E091E08C0F98
:1015A0009D1FB5E13B9F800D911D112421C0C855A1
:1015B000DD4FE881F981C85AD2408081C558DD4F9E
:1015C0000881CB57D240C658DD4F2881CA57D24038
:1015D000C758DD4F4881C957D240B301A1E0B1E0FF
:1015E000AC0FBD1FE5E18E9FA00DB11D1124CD01F3
:1015F0000E941A1AFFEF6F1A7F0A5ECF97FF03C08F
:10160000919581959109E81AF90A29EA31E02C0FA0
:101610003D1F2C0D3D1DC256DD4F39832883CE5909
:10162000D240C601029749EA51E04C0F5D1F480FB6
:10163000591FCA55DD4F59834883C65AD240C2014B
:101640009595879569E272E06C0F7D1F680F791F91
:10165000C855DD4F79836883C85AD240CE56DD4FD6
:1016600088819981C259D24095958795A9E2B2E0C7
:10167000AC0FBD1FA80FB91FC856DD4FB983A88393
:10168000C859D2408B819C81CC57DD4FA881B9814C
:10169000C458D2402D913C91281B390BE216F30619
:1016A0000CF4DBC0C857DD4FE881F981C858D2403F
:1016B000208131812E153F057CF48B819C81A80E01
:1016C000B91EFFEF8F1A9F0A21E8821691040CF0D1
:1016D000C4C0E81AF90AD6CFC457DD4F48815981F2
:1016E000CC58D240A416B50644F38A0D9B1DC456AF
:1016F000DD4F68817981CC59D24068177907ECF2C7
:101700001401220C331C81E090E08C0F9D1F280EE9
:10171000391E3701D1018D919C91F701E81BF90B1E
:10172000E615F70554F6CC57DD4FA881B981C458AA
:10173000D2408D919C91681679060CF067C0CA550D
:10174000DD4FE881F981C65AD24060817181C2566D
:10175000DD4FA881B981CE59D2402D913C91861997
:101760009709621773074CF5C856DD4FE881F98178
:10177000C859D240308197FF03C091958195910956
:10178000680F791F61507109C558DD4F0881CB572B
:10179000D240C658DD4F2881CA57D240C758DD4FC6
:1017A0004881C957D24081E091E08C0F9D1FF5E13F
:1017B0003F9F800D911D11244AC0C856DD4FA8815E
:1017C000B981C859D2403C9197FF03C0919581954A
:1017D0009109681B790B6F5F7F4FC558DD4F0881FA
:1017E000CB57D240C658DD4F2881CA57D240C75880
:1017F000DD4F4881C957D24081E091E08C0F9D1F99
:10180000B5E13B9F800D911D112421C0C855DD4FCE
:10181000E881F981C85AD2408081C558DD4F0881DE
:10182000CB57D240C658DD4F2881CA57D240C7583F
:10183000DD4F4881C957D240B301A1E0B1E0AC0F00
:10184000BD1FE5E18E9FA00DB11D1124CD010E94A9
:101850001A1AF1E06F1A71085DCFC857DD4FE881A1
:10186000F981C858D24080819181CC57DD4FA88141
:10187000B981C458D2402D913C91821B930B97FFA4
:1018800003C09195819591090196CC55DD4FE88172
:10189000F981C45AD240E80FF91FCC55DD4FF983C6
:1018A000E883C45AD240F2E04F0E511CCE56DD4FB1
:1018B00028813981C259D2402E5F3F4FCE56DD4F2D
:1018C00039832883C259D24034E0C30ED11C31CDB4
:1018D00085E1C057DD4F68817981C059D240869F2C
:1018E0007001879FF00C11248B01C12CD12CC056A4
:1018F000DD4F28813981C05AD2402017310714F4B6
:101900000C949A15C6018E0D9F1DA1E0B1E0AC0F9D
:10191000BD1F8A0F9B1FFC0122813381232B11F0F5
:101920000E946B1A0F5F1F4FF5E1CF0ED11CDFCF66
:101930004B815C81C457DD4F59834883CC58D240DA
:1019400057FD09C0C257DD4F68817981CE58D2401A
:101950004617570734F0C457DD4F19821882CC5808
:10196000D2408D819E8118161906B4F4C257DD4FFE
:10197000A881B981CE58D240C456DD4FB983A8831F
:10198000CC59D2408A179B079CF4C456DD4F9983EB
:101990008883CC59D2400CC0C257DD4FE881F98111
:1019A000CE58D240C456DD4FF983E883CC59D2409B
:1019B000FE01E755FE4FC656DD4F19821882CA59FF
:1019C000D24020E030E0CC56DD4F48815981C459E7
:1019D000D24041505109241735073CF5808191814F
:1019E00062817381861B970B97FF03C09195819548
:1019F00091090196C656DD4F68817981CA59D24056
:101A0000680F791FC656DD4F79836883CA59D24063
:101A10003496C457DD4F88819981CC58D2408617BF
:101A200097074CF02E5F3F4FD6CFC657DD4F28812A
:101A30003981CA58D240CC56DD4F48815981C459AA
:101A4000D24042505109C655DD4F68817981CA5A4A
:101A5000D240C257DD4FA881B981CE58D240CE5571
:101A6000DD4FB983A883C25AD24057FD47C0E9EA87
:101A7000F1E0EC0FFD1FE60FF71F80819181EBEA8B
:101A8000F1E0EC0FFD1FE60FF71F0190F081E02D54
:101A90008E1B9F0B97FF03C0919581959109FC01C7
:101AA000E095F095CE55DD4FA881B981C25AD2405C
:101AB000AE0FBF1FCE55DD4FB983A883C25AD240A7
:101AC00064507109C456DD4FE881F981CC59D24088
:101AD000AE17BF0784F40196A80FB91FCE55DD4F8E
:101AE000B983A883C25AD240CA56DD4F598348836E
:101AF000C659D24003C042505109B7CFA901C056C0
:101B0000DD4F19821882C05AD24068E070E0C05799
:101B1000DD4F79836883C059D240CA56DD4F688152
:101B20007981C659D2406417750764F1FA01F595B9
:101B3000E79589E292E08C0F9D1FE80FF91F8081E5
:101B400090E0C057DD4FA881B981C059D2408A17B3
:101B50009B0734F4C057DD4F99838883C059D24026
:101B6000C056DD4FE881F981C05AD240E817F90725
:101B700034F4C056DD4F99838883C05AD2404E5FFB
:101B80005F4FCBCFC657DD4F39832883CA58D24029
:101B9000D1C7C657DD4F88819981CA58D240880F76
:101BA000991FC857DD4F99838883C858D240A9EA46
:101BB000B1E0AC0FBD1FA80FB91FEBEAF1E0EC0FCD
:101BC000FD1FE80FF91F8D919C9120813181821BAF
:101BD000930B97FF03C091958195910980959095FE
:101BE000C656DD4FA881B981CA59D240A80FB91F86
:101BF000CC57DD4FB983A883C458D240C657DD4FB8
:101C0000E881F981CA58D240CC55DD4FF983E88389
:101C1000C45AD24014E0212E312C0AE0E02EF12CDF
:101C2000CC55DD4F68817981C45AD240CA56DD4F08
:101C300088819981C659D240861797070CF456C1FE
:101C4000C857DD4F88819981C858D240029629EA49
:101C500031E02C0F3D1F280F391FC856DD4F398347
:101C60002883C859D240D901CD90DC90E9EAF1E04F
:101C7000EC0FFD1FC857DD4F28813981C858D2406D
:101C8000E20FF31FCE56DD4FF983E883C259D240ED
:101C9000A080B1802B813C814D815E81CC55DD4F90
:101CA00088819981C45AD24095958795AC14BD041A
:101CB0000CF0A9C12417350774F049E252E04C0F2B
:101CC0005D1F480F591FC256DD4F59834883CE59B7
:101CD000D2401FE1DAC069E272E06C0F7D1F680F2D
:101CE000791FC256DD4F79836883CE59D2401FE1F8
:101CF000C856DD4FA881B981C859D2408D919C91B9
:101D00008A159B051CF1CE56DD4FA881B981C259B9
:101D1000D2408D919C91F501E81BF90BCF01CC5776
:101D2000DD4F28813981C458D240820F931F2B8107
:101D30003C81821793070CF498C02F813885820F5D
:101D4000931F2D813E81281739076CF48D819E8168
:101D5000CC57DD4F48815981C458D24048175907A4
:101D60000CF4DDC2C3C0F101EE0FFF1F61E070E0B3
:101D70006C0F7D1FE60FF71F208131812F36310553
:101D800034F1C90164E670E00E945B20CB01B70129
:101D90000E945B200197189F3001199F700C11243D
:101DA000C901B7010E945B209C01CB01B7010E94D1
:101DB0005B200197189F2001199F500C112421507E
:101DC0003109129F6001139FD00C112424C02B30C5
:101DD0003105C4F0C901B7010E945B209C01CB0111
:101DE000B7010E945B200197189F2001199F500C9A
:101DF000112421503109129F6001139FD00C11242E
:101E0000320109C021503109129F6001139FD00C8B
:101E100011242601360145018F8198859501280FEF
:101E2000391F82169306DCF4C256DD4FA881B981B2
:101E3000CE59D2408C910C2D242D462DB401E1E0D9
:101E4000F1E0EC0FFD1F35E1839FE00DF11D112442
:101E5000CF010E941A1A4FEF841A940ADDCF5FEF68
:101E6000251A350A0197A80EB91E6FEFA61AB60AF1
:101E70003FCF5FEF251A350A61E070E0681B790BF0
:101E8000C60ED71E71E0C71AD108CE56DD4FA88105
:101E9000B981C259D2408D919C91C816D906D4F00F
:101EA0009601281B390BC901CC57DD4F4881598158
:101EB000C458D240840F951F2B813C8128173907C5
:101EC0000CF32F813885820F931F2D813E8182175D
:101ED0009307E4F48B819C81CC57DD4F6881798135
:101EE000C458D240681779070CF419C285E1C0576D
:101EF000DD4FE881F981C059D2408E9F70018F9FDC
:101F0000F00C11248F01C12CD12C61C2F101EE0F14
:101F1000FF1F81E090E08C0F9D1FE80FF91F2081CB
:101F200031812F36310534F1C90164E670E00E9439
:101F30005B20CB01B7010E945B200197189F300105
:101F4000199F700C1124C901B7010E945B209C01EC
:101F5000CB01B7010E945B200197189F2001199FB8
:101F6000500C112421503109129F5001139FB00CC5
:101F7000112424C02B303105C4F0C901B7010E94DF
:101F80005B209C01CB01B7010E945B200197189F49
:101F90002001199F500C112421503109129F50012A
:101FA000139FB00C1124320109C021503109129F36
:101FB0005001139FB00C11242501350146018F817A
:101FC00098859601281B390B281539050CF051CF3F
:101FD000C256DD4FA881B981CE59D2408C910A2DCD
:101FE000242D462DB401E1E0F1E0EC0FFD1F35E1B9
:101FF000839FE00DF11D1124CF010E941A1A41E0C8
:10200000841A9108DCCF2417350774F0E9E2F2E076
:10201000EC0FFD1FE80FF91FC256DD4FF983E8836F
:10202000CE59D2401FE1CEC029E232E02C0F3D1F35
:10203000280F391FC256DD4F39832883CE59D2402D
:102040001FE1C856DD4FA881B981C859D2408D9192
:102050009C91A816B9060CF1CE56DD4FA881B98126
:10206000C259D2408D919C918A199B09CC57DD4F62
:10207000E881F981C458D2408E0F9F1F2B813C818B
:10208000821793070CF491C02F813885820F931F1C
:102090002D813E81281739071CF48D819E81B7C0A0
:1020A000F101EE0FFF1F41E050E04C0F5D1FE40F08
:1020B000F51F208131812F36310534F1C90164E6E5
:1020C00070E00E945B20CB01B7010E945B2001976A
:1020D000189F3001199F700C1124C901B7010E948B
:1020E0005B209C01CB01B7010E945B200197189FE8
:1020F0002001199F500C112421503109129F6001B9
:10210000139FD00C112424C02B303105C4F0C90119
:10211000B7010E945B209C01CB01B7010E945B20AC
:102120000197189F2001199F500C1124215031094B
:10213000129F6001139FD00C1124320109C021505D
:102140003109129F6001139FD00C11242601360122
:1021500045018F8198859501281B390B2815390574
:10216000DCF4C256DD4FA881B981CE59D2408C91A2
:102170000C2D242D462DB401E1E0F1E0EC0FFD1F04
:1021800035E1839FE00DF11D1124CF010E941A1A41
:1021900041E0841A9108DDCF5FEF251A350A61E02E
:1021A00070E0681B790BA60EB71E71E0A71AB10884
:1021B00048CF5FEF251A350A0197C80ED91E6FEF79
:1021C000C61AD60ACE56DD4FA881B981C259D2406F
:1021D0008D919C918C159D05C4F08C199D09CC574F
:1021E000DD4FE881F981C458D2408E0F9F1F2B81AB
:1021F0003C81281739071CF32F813885821B930BEC
:102200002D813E81821793076CF48B819C81CC5782
:10221000DD4F28813981C458D240281739070CF482
:102220007EC064CEF101EE0FFF1F41E050E04C0F85
:102230005D1FE40FF51F208131812F36310534F108
:10224000C90164E670E00E945B20CB01B7010E94E7
:102250005B200197189F3001199F700C1124C90150
:10226000B7010E945B209C01CB01B7010E945B205B
:102270000197189F2001199F500C112421503109FA
:10228000129F5001139FB00C112424C02B30310534
:10229000C4F0C901B7010E945B209C01CB01B701CA
:1022A0000E945B200197189F2001199F500C112458
:1022B00021503109129F5001139FB00C112432019B
:1022C00009C021503109129F5001139FB00C1124F5
:1022D0002501350146018F8198859601280F391F08
:1022E000821693060CF065CFC256DD4FA881B981E6
:1022F000CE59D2408C910A2D242D462DB401E1E017
:10230000F1E0EC0FFD1F35E1839FE00DF11D11247D
:10231000CF010E941A1A4FEF841A940ADCCFCE56CE
:10232000DD4FE881F981C259D24080819181C85640
:10233000DD4FA881B981C859D2402D913C91821BB3
:10234000930B97FF03C09195819591090196CC5706
:10235000DD4FE881F981C458D240E80FF91FCC570E
:10236000DD4FF983E883C458D240CC55DD4F288136
:102370003981C45AD2402E5F3F4FCC55DD4F39834F
:102380002883C45AD240C857DD4F48815981C85864
:10239000D2404C5F5F4FC857DD4F59834883C858C0
:1023A000D2403ECCC6018E0D9F1DA1E0B1E0AC0F26
:1023B000BD1F8A0F9B1FFC0122813381232B11F04B
:1023C0000E946B1A0F5F1F4FF5E1CF0ED11CC05654
:1023D000DD4F28813981C05AD2402017310714F7C8
:1023E000A9C349E252E04C0F5D1FA40EB51EC857A9
:1023F000DD4FE881F981C858D240A081B181EA1649
:10240000FB060CF058C0C857DD4FA881B981C858E9
:10241000D2408D919C91CC57DD4FE881F981C45811
:10242000D24020813181821B930B97FF03C091958D
:102430008195910980959095280E391EF2E04F1AEA
:10244000510824E0621A7108C657DD4F488159814E
:10245000CA58D240441655060CF43AC3C30102963A
:1024600049EA51E04C0F5D1F480F591FCC57DD4F13
:1024700059834883C458D240DA01ED90FC90E9EAD0
:10248000F1E0EC0FFD1FE60DF71DC857DD4FF98396
:10249000E883C858D240808191815201B594A794B5
:1024A0008E159F050CF49DCF29E232E02C0F3D1FC5
:1024B000A20EB31E98C1CC57DD4FE881F981C458F4
:1024C000D240808191819701281B390BC901820D6F
:1024D000931DC457DD4F48815981CC58D240841791
:1024E00095070CF464C1C456DD4F68817981CC59DD
:1024F000D240681779070CF45AC10B811C819A01EC
:10250000200F311F281739070CF4A4C08D819E813C
:10251000019709F073C0F601EE0FFF1F81E090E014
:102520008C0F9D1FE80FF91F208131812F36310557
:1025300054F1C90164E670E00E945B20CB010AE01F
:1025400010E0B8010E945B2001974FE1489FF00125
:10255000499FF00D1124C901B8010E945B204C0174
:10256000CB01B8010E945B200197489F9001499FD1
:10257000300D112491E0891A9108489D8001499DF0
:10258000100D112427C02B303105D4F00AE010E0E3
:10259000C901B8010E945B20FC01CB01B8010E9477
:1025A0005B2001974FE1489F9001499F300D112416
:1025B00031974E9F80014F9F100D1124F9010AC0E1
:1025C000215031098FE1829F8001839F100D1124DA
:1025D0009801F801D5018C914E2FB701E1E0F1E0AF
:1025E000EC0FFD1F35E1839FE00DF11D1124CF019C
:1025F0000E941A1A4FEFC41AD40AD9C0C601029613
:10260000880F991FD5013C91A1E0B0E0AC0FBD1F30
:10261000A80FB91FEFEFFFEFEC0FFD1FE80FF91F39
:102620004DEF5FEF4C0F5D1F840F951F0C912081C4
:10263000DC014C91B70181E091E08C0F9D1FB5E169
:102640003B9F800D911D11240E941A1AE3E0CE0ECB
:10265000D11CADC0B701601B710B6A177B070CF072
:1026600092C0A301C201E0E0F0E09D012E193F09F4
:10267000200F311FBA0164507109D901AE1BBF0B85
:102680001A161B0604F5029707EA11E00C0F1D1F2E
:10269000040F151F49EA51E04C0F5D1F460F571FED
:1026A000DA014D915C91D8010D911C91401B510BA9
:1026B00057FF03C05195419551094F5F5F4FE40F9C
:1026C000F51FAB01D7CFAC01440F551FA9EAB1E00C
:1026D000AC0FBD1FA40FB51F0D911C916BEA71E0EB
:1026E0006C0F7D1F460F571FDA016D917C91A80179
:1026F000461B570B57FF03C0519541955109409513
:1027000050954E0F5F1F241B350B0617170784F4D7
:1027100097FD019695958795E9E2F2E0EC0FFD1F94
:10272000E80FF91F8081621B730B6F5F7F4F0FC033
:1027300097FD019695958795E9E2F2E0EC0FFD1F74
:10274000E80FF91F8081620F731F61507109E1E08A
:10275000F1E0EC0FFD1F25E1829FE00DF11D11243A
:10276000CF010E9488189B01AC01D5018C91B70163
:10277000E1E0F1E0EC0FFD1FA5E18A9FE00DF11D06
:102780001124CF0112C0F501808101E011E00C0F8E
:102790001D1FF5E18F9F000D111D1124C8010E941E
:1027A00088189B01AC01B701C8010E94AE1921E055
:1027B000E21AF1081CCECC57DD4FE881F981C458EC
:1027C000D240808191818E199F09820D931DC4573B
:1027D000DD4F28813981CC58D240821793077CF491
:1027E0002FEFE21AF20AC857DD4FE881F981C85885
:1027F000D240A081B181AE15BF05ECF604CEC4561F
:10280000DD4F48815981CC59D2404817590744F3CC
:102810002B813C81C457DD4F48815981CC58D2402F
:10282000420F531F481759070CF4A4C08D819E8195
:10283000019709F073C0F601EE0FFF1F61E070E031
:102840006C0F7D1FE60FF71F208131812F36310578
:1028500054F1C90164E670E00E945B20CB010AE0FC
:1028600010E0B8010E945B2001974FE1489FF00102
:10287000499FF00D1124C901B8010E945B204C0151
:10288000CB01B8010E945B200197489F9001499FAE
:10289000300D112471E0871A9108489D8001499DEF
:1028A000100D112427C02B303105D4F00AE010E0C0
:1028B000C901B8010E945B20FC01CB01B8010E9454
:1028C0005B2001974FE1489F9001499F300D1124F3
:1028D00031974E9F80014F9F100D1124F9010AC0BE
:1028E000215031098FE1829F8001839F100D1124B7
:1028F0009801F801D5018C914E2FB701E1E0F1E08C
:10290000EC0FFD1F35E1839FE00DF11D1124CF0178
:102910000E941A1A4FEFC41AD40A62CFC601029657
:10292000880F991FD5013C91A1E0B0E0AC0FBD1F0D
:10293000A80FB91FEFEFFFEFEC0FFD1FE80FF91F16
:102940004DEF5FEF4C0F5D1F840F951F0C912081A1
:10295000DC014C91B70181E091E08C0F9D1FB5E146
:102960003B9F800D911D11240E941A1AE3E0CE0EA8
:10297000D11C36CFB701620F731FA617B7070CF033
:1029800092C0A301C201E0E0F0E0B7016A1B7B0B3B
:10299000260F371FBA0164507109D901AE1BBF0B56
:1029A0001A161B0604F5029707EA11E00C0F1D1F0B
:1029B000040F151F49EA51E04C0F5D1F460F571FCA
:1029C000DA014D915C91D8010D911C91401B510B86
:1029D00057FF03C05195419551094F5F5F4FE40F79
:1029E000F51FAB01D7CFAC01440F551FA9EAB1E0E9
:1029F000AC0FBD1FA40FB51F0D911C916BEA71E0C8
:102A00006C0F7D1F460F571FDA016D917C91A80155
:102A1000461B570B57FF03C05195419551094095EF
:102A200050954E0F5F1F241B350B0617170784F4B4
:102A300097FD019695958795E9E2F2E0EC0FFD1F71
:102A4000E80FF91F8081621B730B6F5F7F4F0FC010
:102A500097FD019695958795E9E2F2E0EC0FFD1F51
:102A6000E80FF91F8081620F731F61507109E1E067
:102A7000F1E0EC0FFD1F25E1829FE00DF11D112417
:102A8000CF010E9488189B01AC01D5018C91B70140
:102A9000E1E0F1E0EC0FFD1FA5E18A9FE00DF11DE3
:102AA0001124CF0112C0F501808101E011E00C0F6B
:102AB0001D1FF5E18F9F000D111D1124C8010E94FB
:102AC00088189B01AC01B701C8010E94AE1988CEDD
:102AD0008F819885019771F585E1C057DD4F688139
:102AE0007981C059D240869F7001879FF00C1124D4
:102AF0008B01C12CD12CC056DD4F28813981C05AA1
:102B0000D24020173107B4F0C6018E0D9F1DA1E001
:102B1000B1E0AC0FBD1F8A0F9B1FFC0122813381E6
:102B2000232B11F00E946B1A0F5F1F4FF5E1CF0EA0
:102B3000D11CE1CF80E291E00E94AC160C942E03F0
:102B4000CF92DF92EF92FF920F931F93CF93DF9379
:102B50006C017A018B01C0E0D0E0CE15DF0589F071
:102B6000D8016D918D01D601ED91FC910190F0811C
:102B7000E02DC6010995892B11F47E0102C0219632
:102B8000ECCFC701DF91CF911F910F91FF90EF9094
:102B9000DF90CF900895089580E090E00895FC01C3
:102BA000538D448D252F30E0842F90E0821B930BB2
:102BB000541710F0CF96089501970895FC01918D58
:102BC000828D981761F0828DDF01A80FB11D5D968F
:102BD0008C91928D9F5F9F73928F90E008958FEFFD
:102BE0009FEF0895FC01918D828D981731F0828DB1
:102BF000E80FF11D858D90E008958FEF9FEF089508
:102C0000FC01918D228D892F90E0805C9F4F821B6B
:102C100091098F739927089582E291E00E9400162E
:102C200021E0892B09F420E0822F0895FC01848D96
:102C3000DF01A80FB11DA35ABF4F2C91848D90E0E6
:102C400001968F739927848FA689B7892C93A089C1
:102C5000B1898C9180648C93938D848D981306C078
:102C60000288F389E02D80818F7D80830895EF9223
:102C7000FF920F931F93CF93DF93EC0181E0888F36
:102C80009B8D8C8D981305C0E889F989808185FD1D
:102C900024C0F62E0B8D10E00F5F1F4F0F7311270E
:102CA000E02E8C8DE8120CC00FB607FCFACFE88935
:102CB000F989808185FFF5CFCE010E941616F1CFEC
:102CC0008B8DFE01E80FF11DE35AFF4FF0820B8F51
:102CD000EA89FB898081806207C0EE89FF89608371
:102CE000E889F98980818064808381E090E0DF91C8
:102CF000CF911F910F91FF90EF900895CF93DF93A5
:102D0000EC01888D8823C9F0EA89FB89808185FDE3
:102D100005C0A889B9898C9186FD0FC00FB607FC44
:102D2000F5CF808185FFF2CFA889B9898C9185FF85
:102D3000EDCFCE010E941616E7CFDF91CF91089517
:102D400080E090E0892B29F00E940C1681110C94F0
:102D5000000008950E94D821009769F0FC010190BD
:102D60000020E9F73197AF01481B590BBC0182E203
:102D700091E00C94A01580E090E008952FB7F894AE
:102D80008091C4019091C501A091C601B091C70185
:102D90002FBF80932A0190932B01A0932C01B09315
:102DA0002D01E0912201F09123010484F585E02DAD
:102DB00082E291E0099597FF26C02FB7F8948091A1
:102DC000C4019091C501A091C601B091C7012FBF68
:102DD00040912A0150912B0160912C0170912D019D
:102DE000841B950BA60BB70B409126015091270130
:102DF000609128017091290184179507A607B707EC
:102E000080F28FEF9FEF089590E0FC01EC54FF4FAC
:102E10002491FC01E056FF4F3491FC01E457FF4F31
:102E2000E491EE23B9F1222339F1233091F038F403
:102E30002130A9F0223001F584B58F7D12C02730F2
:102E400091F02830A1F02430B9F4809180008F7D7A
:102E500003C0809180008F77809380000DC084B57F
:102E60008F7784BD09C08091B0008F7703C08091B7
:102E7000B0008F7D8093B000F0E0EE0FFF1FEE57A3
:102E8000FF4FA591B4918FB7F894EC9130953E2304
:102E90003C938FBF08951F920F920FB60F9211248B
:102EA0002F933F934F935F936F937F938F939F9352
:102EB000AF93BF93EF93FF9382E291E00E941616C7
:102EC000FF91EF91BF91AF919F918F917F916F9102
:102ED0005F914F913F912F910F900FBE0F901F90D8
:102EE00018951F920F920FB60F9211242F938F9364
:102EF0009F93EF93FF93E0913201F0913301808132
:102F0000E0913801F091390182FD12C090818091E9
:102F10003B018F5F8F7320913C01821751F0E0914C
:102F20003B01F0E0EE5DFE4F958F80933B0101C0C9
:102F30008081FF91EF919F918F912F910F900FBE04
:102F40000F901F901895CF93DF9390E0FC01E0560F
:102F5000FF4F2491FC01E457FF4F8491882361F1D6
:102F600090E0880F991FFC01E858FF4FC591D4915C
:102F7000FC01EE57FF4FA591B491611109C09FB7B5
:102F8000F8948881209582238883EC912E230BC0AE
:102F9000623061F49FB7F8943881822F8095832343
:102FA0008883EC912E2B2C939FBF06C08FB7F8948B
:102FB000E8812E2B28838FBFDF91CF9108953FB7F3
:102FC000F8948091C0019091C101A091C201B0918B
:102FD000C30126B5A89B05C02F3F19F00196A11D7E
:102FE000B11D3FBFBA2FA92F982F8827820F911D9F
:102FF000A11DB11DBC01CD0142E0660F771F881FE6
:10300000991F4A95D1F708958F929F92AF92BF92E0
:10301000CF92DF92EF92FF926B017C010E94DF174B
:103020004B015C01C114D104E104F104F1F00E94F0
:10303000DF17DC01CB0188199909AA09BB09883E71
:103040009340A105B10570F321E0C21AD108E1084F
:10305000F10888EE880E83E0981EA11CB11CC114F3
:10306000D104E104F10419F7DDCFFF90EF90DF9078
:10307000CF90BF90AF909F908F9008951F920F9226
:103080000FB60F9211242F933F938F939F93AF937B
:10309000BF938091C4019091C501A091C601B091E8
:1030A000C7013091BF0123E0230F2D3720F4019693
:1030B000A11DB11D05C026E8230F0296A11DB11D5B
:1030C0002093BF018093C4019093C501A093C601D2
:1030D000B093C7018091C0019091C101A091C2013C
:1030E000B091C3010196A11DB11D8093C0019093C1
:1030F000C101A093C201B093C301BF91AF919F9151
:103100008F913F912F910F900FBE0F901F901895A8
:103110004F925F926F927F928F929F92AF92BF92E7
:10312000CF92DF92EF92FF920F931F93CF93DF9393
:10313000DC0112968D919C9113976817790708F01E
:10314000F9C01D968C911D971A96EC901A971896B7
:10315000ED91FC91199717968C901797482F50E096
:103160001B961C911B971C960C91EB018E1164C051
:10317000CC0FDD1FC60FD71FCE0FDF1F882009F42D
:1031800043C0912CA12CB12CFE01E40FF51F6081EE
:1031900070E0762F6627072E000C880B990BA5018F
:1031A00094010E946F20390155244424FE01E10F4F
:1031B000F11D608170E0762F6627072E000C880BCA
:1031C000990BA50194010E946F20B42FA32F922F79
:1031D000882773016201C82AD92AEA2AFB2AC00F6C
:1031E000D11D688170E0762F6627072E000C880BB2
:1031F000990BA50194010E946F20C701B601622BB3
:10320000732B842B952B99C0FE01E40FF51F2081B1
:10321000FE01E10FF11D6081862F90E0A0E0B0E09B
:10322000BA2FA92F982F8827A22BC00FD11D288134
:10323000BC01CD01622B81C0CC0FDD1FCC0FDD1F87
:10324000CE0FDF1FF12C882009F458C0912CA12C3F
:10325000B12CFE01E40FF51F608170E0762F662728
:10326000072E000C880B990BA50194010E946F207A
:10327000722E662455244424FE01EE0DFF1D60814C
:1032800070E0762F6627072E000C880B990BA5019E
:1032900094010E946F207901DD24CC24C428D52814
:1032A000E628F728FE01E00FF11D608170E0762F1F
:1032B0006627072E000C880B990BA50194010E942C
:1032C0006F20C22AD32AE42AF52AC10FD11D6881B2
:1032D00070E0762F6627072E000C880B990BA5014E
:1032E00094010E946F20B42FA32F922F8827BC0136
:1032F000CD016C297D298E299F291FC0FE01E40F75
:10330000F51F2081FE01EE0DFF1D6081862F90E0EC
:10331000A0E0B0E0DC0199278827B22BFE01E00F86
:10332000F11D2081822BC10FD11D2881BC01CD014F
:10333000722B03C060E070E0CB01DF91CF911F9151
:103340000F91FF90EF90DF90CF90BF90AF909F9044
:103350008F907F906F905F904F9008958F929F9283
:10336000AF92BF92CF92DF92EF92FF920F931F9393
:10337000CF93DF93FC01828193816817790708F06E
:103380004CC04A01AA24BB24B82DC32ED42EE52E4E
:10339000FF24AC2D922F8781882361F0889E400105
:1033A0001124B92DC89E60011124AD2D289FE00184
:1033B00011249D2FD584C285E084F184DC1208C0DD
:1033C0009B01220F331F620F731F6E0D7F1D16C0EE
:1033D000660F771F660F771F6E0D7F1D052F112754
:1033E00022273327EB01CD0DD11D882329F0089F1B
:1033F00090011124232F01C0202F28838285EB0107
:10340000C80FD11DB8838385EB01C80FD11DA883D8
:103410008485FB01E80FF11D9083DF91CF911F910F
:103420000F91FF90EF90DF90CF90BF90AF909F9063
:103430008F9008950F931F93DC0112968D919C91AC
:1034400013976817790708F043C017968C91179760
:10345000882361F0489FA0011124452F289F9001E7
:103460001124232F089F80011124012F1D968C9178
:103470001D971A969C911A971896ED91FC911997A1
:10348000891308C0CB01880F991F680F791F6E0F31
:103490007F1F0AC0660F771F660F771F6E0F7F1F93
:1034A000FB01E80FF11D10821A968C911A97FB010F
:1034B000E80FF11D40831B968C911B97FB01E80FD1
:1034C000F11D20831C968C91FB01E80FF11D0083F8
:1034D0001F910F910895CF92DF92EF92FF920F9379
:1034E0001F93CF93DF93CDB7DEB729970FB6F8942C
:1034F000DEBF0FBECDBF8C01DC0118968D919C9173
:103500001997892B09F4A3C00E94DF17F801C6841C
:10351000D784E088F188DC01CB018C199D09AE09C4
:10352000BF098C329140A105B10570F3F894D80120
:1035300014968D919C9115979A8389831896ED9195
:10354000FC9119977F01BFEFEB1AFB0A80818987F5
:10355000F80190810288F389E02DD80154968C916E
:10356000992309F430C09081982B98879081809599
:1035700089238F838F818C8388E08B8358856F812B
:1035800049853B812C8189819A81D701508347FDF0
:10359000252F3A952083262F39F0441F00C00000C4
:1035A0006083000000C0F2CF38E04D9160830000DE
:1035B000019761F7D8015396FC93EE935297498790
:1035C0003B832C833AC09081982B9887908180957B
:1035D00089238F838F818E8388E08D8358856F81C7
:1035E00049853D812E8189819A81D701508347FD8C
:1035F000252F00C000C0208300C000C000C000C054
:1036000000C060830000262F3A9541F0441F00005F
:1036100000C000C000C000C000C0E8CF38E04D913D
:1036200000C0608300C0019709F7D8015396FC934E
:10363000EE93529749873D832E839A8389837894AA
:103640000E94DF17F80166877787808B918B299618
:103650000FB6F894DEBF0FBECDBFDF91CF911F91A3
:103660000F91FF90EF90DF90CF900895CF92DF926F
:10367000EF92FF921F93CF93DF93EC017B01142F06
:1036800019821F821E861F86188A198AC90146E080
:10369000969587954A95E1F7482F43704D87C90164
:1036A00054E0969587955A95E1F783708A87B9011A
:1036B000769567957695679563706B87922F937073
:1036C0009C8791E02F3F310511F008F090E098833E
:1036D000481719F084E090E002C083E090E08E9DEE
:1036E00060018F9DD00C9E9DD00C1124DD82CC8278
:1036F000C6010E94AB2099878887009741F0A601F8
:1037000060E070E00E94DD21FB82EA8204C01D823D
:103710001C821B821A821E838981882339F061E012
:10372000812F0E94A317812F0E940417812F90E000
:10373000FC01E457FF4FE491F0E0EE0FFF1FEE575E
:10374000FF4F259134913B8B2A8BFC01E056FF4FB4
:10375000E491EC8BDF91CF911F91FF90EF90DF9080
:10376000CF9008958F929F92AF92BF92CF92DF92A7
:10377000FF920F931F93CF93DF9300D000D0CDB76C
:10378000DEB78C0182E291E00E94001603970CF4F0
:103790006BC068011395F60111921192E017F107C1
:1037A000D9F782E291E00E940016181619060CF073
:1037B0005DC00E94BE16FC0197FD11C08D329105BF
:1037C00091F0C0970A9778F0E0912201F0912301DF
:1037D0000284F385E02D82E291E00995EACF80E052
:1037E00090E0DC012CC020E030E0A901F12CE130B8
:1037F000F105F1F5E0912201F09123010284F385B6
:10380000E02D82E291E029833A834B835C83099522
:103810000E94BE16FC01C09729813A814B815C81D0
:103820000A9728F3E130F10511F3FF2009F440C0B5
:1038300088279927DC01821B930BA40BB50B8F3FC4
:103840002FEF920729F482E291E00E94DE150EC06C
:10385000F601819391936F01E017F10709F0A1CF71
:1038600082E291E00E94DE1580E025C081E023C065
:10387000ED32F105D1F0CF01C0970A9708F0BACF29
:10388000AAE0B0E00E94271F4F01FF0FAA08BB0863
:10389000DC01CB01880D991DAA1DBB1D9C01AD014A
:1038A0002053310941095109A5CFFF24F394A2CF38
:1038B000DA01C901C4CF0F900F900F900F90DF91E4
:1038C000CF911F910F91FF90DF90CF90BF90AF905D
:1038D0009F908F9008952F923F924F925F926F9298
:1038E0007F928F929F92AF92BF92CF92DF92EF9290
:1038F000FF920F931F93CF93DF93CDB7DEB72A9735
:103900000FB6F894DEBF0FBECDBF9E838D83788740
:103910006F83142F29870A87FC82EB826BA07CA01F
:10392000C301880F991FF401E80FF91F808191816D
:1039300022813381821B930B97FF03C09195819560
:103940009109809590952FA138A55901A80EB91E0F
:103950004F012B813C811901330F440855088DA17B
:103960009EA1861597050CF4CCC0F4018281938149
:10397000E080F180E816F9060CF056C0C30177FC30
:103980000196959587952F8D38A1280F391F3A8379
:103990002983E12CF12CF401608171818281938172
:1039A0009B01281B390BC90137FF03C091958195F5
:1039B00091098E159F050CF48EC0C5018E0D9F1DBB
:1039C000ED81FE818E179F075CF12F8138852817C6
:1039D000390734F1E981FA8180816E0D7F1D0A85F6
:1039E0002985412FF60135E1839FE00DF11D11245A
:1039F000CF010E941A1A8B819C811816190684F433
:103A0000E981FA818081960145E1849F200D311D75
:103A10001124C9010E946B1AC201B1010E9404184D
:103A20008FEFE81AF80AB7CFE81AF90AF7FE03C0D1
:103A3000F194E194F108C30177FC0196959587957F
:103A4000EF8DF8A1E80FF91FFA83E983F401628191
:103A5000738180819181861B970B97FF03C091959D
:103A6000819591098E199F098A0D9B1D2D813E819B
:103A7000821793075CF1EF81F885E817F90734F1B5
:103A8000E981FA8180816E0D7F1D0A852985412F8C
:103A9000F60135E1839FE00DF11D1124CF010E9455
:103AA0001A1A8B819C811816190684F4E981FA810F
:103AB0008081960145E1849F200D311D1124C901AB
:103AC0000E946B1AC201B1010E94041881E0E81A39
:103AD000F10808F0BBCFF40180819181228133810C
:103AE000821B930B97FF03C09195819591090196D5
:103AF000A80EB91EF2E06F0E711C24E0820E911C1C
:103B00002ECF2A960FB6F894DEBF0FBECDBFDF9141
:103B1000CF911F910F91FF90EF90DF90CF90BF90CA
:103B2000AF909F908F907F906F905F904F903F905D
:103B30002F900895789484B5826084BD84B58160A7
:103B400084BD85B5826085BD85B5816085BDEEE6A5
:103B5000F0E0808181608083E1E8F0E01082808184
:103B600082608083808181608083E0E8F0E08081F2
:103B700081608083E1EBF0E0808184608083E0EB12
:103B8000F0E0808181608083EAE7F0E080818460FA
:103B90008083808182608083808181608083808156
:103BA000806880831092C1000E948F00E2E2F1E001
:103BB0001382128288EE93E0A0E0B0E084839583C4
:103BC000A683B7838AE091E09183808385EC90E0BF
:103BD0009587848784EC90E09787868780EC90E0D7
:103BE000918B808B81EC90E0938B828B82EC90E0C8
:103BF000958B848B86EC90E0978B868B118E128E42
:103C0000138E148E08950E94451E08F481E00895D5
:103C1000E89409C097FB3EF4909580957095619566
:103C20007F4F8F4F9F4F9923A9F0F92F96E9BB271C
:103C30009395F695879577956795B795F111F8CF98
:103C4000FAF4BB0F11F460FF1BC06F5F7F4F8F4F03
:103C50009F4F16C0882311F096E911C0772321F0F9
:103C60009EE8872F762F05C0662371F096E8862F91
:103C700070E060E02AF09A95660F771F881FDAF7E8
:103C8000880F9695879597F90895990F0008550F15
:103C9000AA0BE0E8FEEF16161706E807F907C0F0D2
:103CA00012161306E407F50798F0621B730B840BDA
:103CB000950B39F40A2661F0232B242B252B21F4B4
:103CC00008950A2609F4A140A6958FEF811D811D54
:103CD00008950E947C1E0C94ED1E0E94DF1E38F099
:103CE0000E94E61E20F0952311F00C94D61E0C9431
:103CF000DC1E11240C94211F0E94FE1E70F3959F60
:103D0000C1F3950F50E0551F629FF001729FBB27D2
:103D1000F00DB11D639FAA27F00DB11DAA1F649F6E
:103D20006627B00DA11D661F829F2227B00DA11D21
:103D3000621F739FB00DA11D621F839FA00D611DA7
:103D4000221F749F3327A00D611D231F849F600DC8
:103D5000211D822F762F6A2F11249F5750409AF0F1
:103D6000F1F088234AF0EE0FFF1FBB1F661F771F7D
:103D7000881F91505040A9F79E3F510580F00C9448
:103D8000D61E0C94211F5F3FE4F3983ED4F3869532
:103D900077956795B795F795E7959F5FC1F7FE2BE8
:103DA000880F911D9695879597F9089597F99F67C4
:103DB00080E870E060E008959FEF80EC08950024B3
:103DC0000A941616170618060906089500240A9480
:103DD00012161306140605060895092E0394000C06
:103DE00011F4882352F0BB0F40F4BF2B11F460FF95
:103DF00004C06F5F7F4F8F4F9F4F089557FD9058BE
:103E0000440F551F59F05F3F71F04795880F97FB9E
:103E1000991F61F09F3F79F0879508951216130658
:103E20001406551FF2CF4695F1DF08C01616170687
:103E30001806991FF1CF86957105610508940895BC
:103E4000E894BB2766277727CB0197F908950E944E
:103E5000321FA59F900DB49F900DA49F800D911DC2
:103E600011240895A29FB001B39FC001A39F700DBC
:103E7000811D1124911DB29F700D811D1124911D72
:103E800008955058BB27AA270E94591F0C94ED1E75
:103E90000E94DF1E38F00E94E61E20F039F49F3F9A
:103EA00019F426F40C94DC1E0EF4E095E7FB0C9458
:103EB000D61EE92F0E94FE1E58F3BA176207730739
:103EC0008407950720F079F4A6F50C94201F0EF4D2
:103ED000E0950B2EBA2FA02D0B01B90190010C011A
:103EE000CA01A0011124FF27591B99F0593F50F432
:103EF000503E68F11A16F040A22F232F342F44278A
:103F0000585FF3CF469537952795A795F040539581
:103F1000C9F77EF41F16BA0B620B730B840BBAF051
:103F20009150A1F0FF0FBB1F661F771F881FC2F7BC
:103F30000EC0BA0F621F731F841F48F487957795D0
:103F40006795B795F7959E3F08F0B0CF9395880F8A
:103F500008F09927EE0F9795879508950E94C21F44
:103F60000C94ED1E0E94E61E58F00E94DF1E40F0E9
:103F700029F45F3F29F00C94D61E51110C94211F97
:103F80000C94DC1E0E94FE1E68F39923B1F35523A6
:103F900091F3951B550BBB27AA276217730784075C
:103FA00038F09F5F5F4F220F331F441FAA1FA9F3F2
:103FB00035D00E2E3AF0E0E832D091505040E695E0
:103FC000001CCAF72BD0FE2F29D0660F771F881F41
:103FD000BB1F261737074807AB07B0E809F0BB0B34
:103FE000802DBF01FF2793585F4F3AF09E3F510548
:103FF00078F00C94D61E0C94211F5F3FE4F3983E9A
:10400000D4F3869577956795B795F7959F5FC9F730
:10401000880F911D9695879597F90895E1E0660FB1
:10402000771F881FBB1F621773078407BA0720F02A
:10403000621B730B840BBA0BEE1F88F7E095089593
:104040000E9427206894B1110C94211F08950E94AA
:10405000061F88F09F5798F0B92F9927B751B0F0F5
:10406000E1F0660F771F881F991F1AF0BA95C9F7FC
:1040700014C0B13091F00E94201FB1E008950C945B
:10408000201F672F782F8827B85F39F0B93FCCF30E
:10409000869577956795B395D9F73EF49095809579
:1040A000709561957F4F8F4F9F4F08950E94451ED9
:1040B00008F48FEF089597FB072E16F4009407D0AD
:1040C00077FD09D00E94972007FC05D03EF490951B
:1040D00081959F4F0895709561957F4F0895A1E256
:1040E0001A2EAA1BBB1BFD010DC0AA1FBB1FEE1F72
:1040F000FF1FA217B307E407F50720F0A21BB30BBD
:10410000E40BF50B661F771F881F991F1A9469F738
:1041100060957095809590959B01AC01BD01CF0194
:104120000895EE0FFF1F0590F491E02D0994AA1B4E
:10413000BB1B51E107C0AA1FBB1FA617B70710F092
:10414000A61BB70B881F991F5A95A9F780959095C4
:10415000BC01CD010895CF93DF938230910510F417
:1041600082E090E0E091CA01F091CB0120E030E0E4
:10417000C0E0D0E0309711F14081518148175907D4
:10418000C0F04817590761F482819381209719F094
:104190009B838A832BC09093CB018093CA0126C056
:1041A0002115310519F04217530718F49A01BE0181
:1041B000DF01EF010280F381E02DDCCF2115310515
:1041C00009F1281B390B2430310590F412968D919A
:1041D0009C9113976115710521F0FB0193838283F4
:1041E00004C09093CB018093CA01FD01329644C074
:1041F000FD01E20FF31F81939193225031092D931A
:104200003C933AC02091C8013091C901232B41F45D
:1042100020910201309103013093C9012093C8011C
:1042200020910001309101012115310541F42DB794
:104230003EB74091040150910501241B350BE091DC
:10424000C801F091C901E217F307A0F42E1B3F0B40
:104250002817390778F0AC014E5F5F4F24173507F8
:1042600048F04E0F5F1F5093C9014093C8018193DE
:10427000919302C0E0E0F0E0CF01DF91CF9108958B
:104280000F931F93CF93DF93009709F48CC0FC0129
:104290003297138212820091CA011091CB0101154D
:1042A000110581F420813181820F931F2091C80173
:1042B0003091C9012817390779F5F093C901E093C6
:1042C000C80171C0D80140E050E0AE17BF0750F4FC
:1042D00012962D913C911397AD012115310509F1ED
:1042E000D901F3CF9D01DA0133832283608171818B
:1042F000860F971F8217930769F4EC012881398193
:10430000260F371F2E5F3F4F318320838A819B8189
:1043100093838283452B29F4F093CB01E093CA0168
:1043200042C01396FC93EE931297ED014991599177
:104330009E01240F351FE217F30771F480819181EC
:10434000840F951F029611969C938E938281938180
:1043500013969C938E931297E0E0F0E0D8011296AA
:104360008D919C911397009719F0F8018C01F6CF6D
:104370008D919C9198012E5F3F4F820F931F20914A
:10438000C8013091C9012817390769F4309729F419
:104390001092CB011092CA0102C0138212821093B4
:1043A000C9010093C801DF91CF911F910F9108952A
:1043B00081E090E0F8940C94E421DC0101C06D935D
:0C43C00041505040E0F70895F894FFCF02
:1043CC000000CC018000000000003716A015CF15AE
:1043DC007E160016DE15F215520030003100320048
:0243EC0033009C
:107800000C94343C0C94513C0C94513C0C94513CE1
:107810000C94513C0C94513C0C94513C0C94513CB4
:107820000C94513C0C94513C0C94513C0C94513CA4
:107830000C94513C0C94513C0C94513C0C94513C94
:107840000C94513C0C94513C0C94513C0C94513C84
:107850000C94513C0C94513C0C94513C0C94513C74
:107860000C94513C0C94513C11241FBECFEFD8E036
:10787000DEBFCDBF11E0A0E0B1E0ECE9FFE702C060
:1078800005900D92A230B107D9F712E0A2E0B1E065
:1078900001C01D92AD30B107E1F70E942D3D0C945F
:1078A000CC3F0C94003C982F959595959595959582
:1078B000905D8F708A307CF0282F295A8091C0000B
:1078C00085FFFCCF9093C6008091C00085FFFCCF60
:1078D0002093C6000895282F205DF0CF982F809127
:1078E000C00085FFFCCF9093C6000895EF92FF92F1
:1078F0000F931F93EE24FF2487018091C00087FD22
:1079000017C00894E11CF11C011D111D81E4E8164B
:1079100082E4F8068FE0080780E0180770F3E09132
:107920000401F091050109958091C00087FFE9CF1E
:107930008091C6001F910F91FF90EF9008950E94D3
:10794000763C982F8091C00085FFFCCF9093C600B5
:1079500091362CF490330CF09053892F089597555D
:10796000892F08951F930E949F3C182F0E949F3CCF
:107970001295107F810F1F9108951F93182F882350
:1079800021F00E94763C1150E1F71F9108951F935A
:10799000182F0E94763C803249F0809103018F5F5E
:1079A000809303018530C1F01F9108958091C0003C
:1079B00085FFFCCF84E18093C6008091C00085FFE5
:1079C000FCCF1093C6008091C00085FFFCCF80E102
:1079D0008093C6001F910895E0910401F091050184
:1079E00009951F9108950E94763C803241F0809164
:1079F00003018F5F80930301853081F008958091AA
:107A0000C00085FFFCCF84E18093C6008091C00058
:107A100085FFFCCF80E18093C6000895E0910401CA
:107A2000F09105010995089540E951E08823A1F0FE
:107A30002D9A28EE33E0FA013197F1F721503040CA
:107A4000D1F72D9828EE33E0FA013197F1F7215064
:107A50003040D1F7815061F708953F924F925F9285
:107A60006F927F928F929F92AF92BF92CF92DF924E
:107A7000EF92FF920F931F93CF93DF93000080E16B
:107A80008093C4001092C50088E18093C10086E015
:107A90008093C2005098589A259A81E00E94143D24
:107AA00024E1F22E9EE1E92E85E9D82E0FE0C02ECA
:107AB00010E1B12EAA24A394B1E49B2EA6E58A2E50
:107AC000F2E57F2EE0E26E2E79E4572E63E5462E36
:107AD00050E5352E0E94763C8033B1F18133B9F107
:107AE000803409F46FC0813409F476C0823409F41B
:107AF00085C0853409F488C0803531F1823521F1A3
:107B0000813511F1853509F485C0863509F48DC0BC
:107B1000843609F496C0843709F403C1853709F423
:107B200072C1863709F466C0809103018F5F80932C
:107B30000301853079F6E0910401F0910501099582
:107B40000E94763C803351F60E94F33CC3CF0E94E2
:107B5000763C803249F78091C00085FFFCCFF092DF
:107B6000C6008091C00085FFFCCF9092C600809136
:107B7000C00085FFFCCF8092C6008091C00085FFC9
:107B8000FCCF7092C6008091C00085FFFCCF609250
:107B9000C6008091C00085FFFCCF5092C600809146
:107BA000C00085FFFCCF4092C6008091C00085FFD9
:107BB000FCCF3092C6008091C00085FFFCCFB09210
:107BC000C60088CF0E94763C863808F4BDCF0E945C
:107BD000763C0E94F33C7ECF0E94763C803809F4CC
:107BE0009CC0813809F40BC1823809F43CC1883942
:107BF00009F48FC080E00E94C73C6CCF84E10E94F2
:107C0000BD3C0E94F33C66CF85E00E94BD3C0E94D3
:107C1000F33C60CF0E94763C809306010E94763C44
:107C2000809307010E94F33C55CF0E94763C80333D
:107C300009F41DC183E00E94BD3C80E00E94C73C66
:107C400049CF0E94763C809309020E94763C809343
:107C5000080280910C028E7F80930C020E94763C79
:107C6000853409F415C18091080290910902892B8D
:107C700089F000E010E00E94763CF801E85FFE4FDA
:107C800080830F5F1F4F80910802909109020817AF
:107C9000190788F30E94763C803209F045CF809125
:107CA0000C0280FF01C16091060170910701660F0F
:107CB000771F7093070160930601A0910802B091AD
:107CC00009021097C9F0E8E0F1E09B01AD014E0F09
:107CD0005F1FF999FECF32BD21BD819180BDFA9A17
:107CE000F99A2F5F3F4FE417F50799F76A0F7B1F4B
:107CF00070930701609306018091C00085FFFCCF5F
:107D0000F092C6008091C00085FFFCCFB092C60003
:107D1000E1CE83E00E94C73CDDCE82E00E94C73CFA
:107D2000D9CE0E94763C809309020E94763C8093D3
:107D300008028091060190910701880F991F909386
:107D40000701809306010E94763C853409F4A6C0A1
:107D500080910C028E7F80930C020E94763C8032D0
:107D600009F0B8CE8091C00085FFFCCFF092C6002C
:107D7000609108027091090261157105B9F140E046
:107D800050E080910C02A82FA170B82FB27011C0E2
:107D9000BB2309F45CC0E0910601F0910701319624
:107DA000F0930701E09306014F5F5F4F46175707B7
:107DB000E8F4AA2369F3F999FECF209106013091E6
:107DC000070132BD21BDF89A90B58091C00085FFB2
:107DD000FCCF9093C6002F5F3F4F30930701209355
:107DE00006014F5F5F4F4617570718F38091C00099
:107DF00085FDE5CE8091C00085FFF8CFE0CE81E023
:107E00000E94C73C67CE0E94763C803209F08CCE3F
:107E10008091C00085FFFCCFF092C6008091C00029
:107E200085FFFCCFE092C6008091C00085FFFCCFAB
:107E3000D092C6008091C00085FFFCCFC092C600E2
:107E40008091C00085FFFCCFB092C60043CEE09188
:107E50000601F091070194918091C00085FFFCCF4D
:107E60009093C6009CCF80E10E94C73C33CE0E9415
:107E7000763C0E94763C182F0E94763C112309F430
:107E800083C0113009F484C08FE00E94C73C22CE29
:107E900080910C02816080930C02E5CE80910C02EF
:107EA000816080930C0259CF809107018823880F4D
:107EB000880B8A2180930B02809106019091070123
:107EC000880F991F90930701809306018091080203
:107ED00080FF09C080910802909109020196909359
:107EE000090280930802F894F999FECF1127E091D6
:107EF0000601F0910701C8E0D1E08091080290915D
:107F00000902103091F40091570001700130D9F34B
:107F100003E000935700E89500915700017001308D
:107F2000D9F301E100935700E89509901990009169
:107F3000570001700130D9F301E000935700E89534
:107F40001395103498F011270091570001700130FB
:107F5000D9F305E000935700E895009157000170B0
:107F60000130D9F301E100935700E895329602976A
:107F700009F0C7CF103011F00296E5CF112480919F
:107F8000C00085FFB9CEBCCE8EE10E94C73CA2CD19
:0C7F900085E90E94C73C9ECDF894FFCF0D
:027F9C00800063
:040000030000780081
:00000001FF