:100000000C945D000C9485000C9485000C94850084
:100010000C9485000C9485000C9485000C9485004C
:100020000C9485000C9485000C9485000C9485003C
:100030000C9485000C9485000C9485000C9485002C
:100040000C94530F0C9485000C94210F0C94FB0E10
:100050000C9485000C9485000C9485000C9485000C
:100060000C9485000C9485000000000024002700FB
:100070002A0000000000250028002B0004040404CE
:100080000404040402020202020203030303030342
:10009000010204081020408001020408102001021F
:1000A00004081020000000080002010000030407FB
:1000B0000000000000000000D90F11241FBECFEF88
:1000C000D8E0DEBFCDBF21E0AAE1B1E001C01D92C2
:1000D000A53CB207E1F711E0A0E0B1E0EAEDF9E2FA
:1000E00002C005900D92AA31B107D9F710E0CDE515
:1000F000D0E004C02197FE010E94D212CC35D10776
:10010000C9F70E949D0F0C94EB140C94000090E032
:10011000FC01EC55FF4F2491FC01E057FF4F349157
:10012000FC01E458FF4FE491EE23B9F1222339F1A9
:10013000233091F038F42130A9F0223001F584B554
:100140008F7D12C0273091F02830A1F02430B9F40F
:10015000809180008F7D03C0809180008F77809395
:1001600080000DC084B58F7784BD09C08091B00038
:100170008F7703C08091B0008F7D8093B000F0E056
:10018000EE0FFF1FEE58FF4FA591B4918FB7F89473
:10019000EC9130953E233C938FBF0895CF92DF9230
:1001A000EF92FF920F931F93CF93DF936C017A012D
:1001B0008B01C0E0D0E0CE15DF0589F0D8016D914C
:1001C0008D01D601ED91FC910190F081E02DC601E9
:1001D0000995892B11F47E0102C02196ECCFC7014D
:1001E000DF91CF911F910F91FF90EF90DF90CF9013
:1001F0000895089580E090E00895FC01538D448DAA
:10020000252F30E0842F90E0821B930B541710F0C1
:10021000CF96089501970895FC01918D828D9817CE
:1002200061F0828DDF01A80FB11D5D968C91928DDA
:100230009F5F9F73928F90E008958FEF9FEF0895D7
:10024000FC01918D828D981731F0828DE80FF11DA0
:10025000858D90E008958FEF9FEF0895FC01918DBB
:10026000228D892F90E0805C9F4F821B91098F73B4
:100270009927089584E291E00E942E0121E0892BC4
:1002800009F420E0822F0895FC01848DDF01A80F7E
:10029000B11DA35ABF4F2C91848D90E001968F73AE
:1002A0009927848FA689B7892C93A089B1898C91CD
:1002B00080648C93938D848D981306C00288F38993
:1002C000E02D80818F7D80830895EF92FF920F93C0
:1002D0001F93CF93DF93EC0181E0888F9B8D8C8DF2
:1002E000981305C0E889F989808185FD24C0F62E20
:1002F0000B8D10E00F5F1F4F0F731127E02E8C8DB9
:10030000E8120CC00FB607FCFACFE889F9898081A2
:1003100085FFF5CFCE010E944401F1CF8B8DFE0108
:10032000E80FF11DE35AFF4FF0820B8FEA89FB893A
:100330008081806207C0EE89FF896083E889F9893E
:1003400080818064808381E090E0DF91CF911F9174
:100350000F91FF90EF900895CF93DF93EC01888D7C
:100360008823C9F0EA89FB89808185FD05C0A889B9
:10037000B9898C9186FD0FC00FB607FCF5CF80813F
:1003800085FFF2CFA889B9898C9185FFEDCFCE0189
:100390000E944401E7CFDF91CF91089580E090E083
:1003A000892B29F00E943A0181110C9400000895D4
:1003B000CF93DF9390E0FC01E057FF4F2491FC01C5
:1003C000E458FF4F8491882361F190E0880F991FD2
:1003D000FC01E859FF4FC591D491FC01EE58FF4F45
:1003E000A591B491611109C09FB7F89488812095B7
:1003F00082238883EC912E230BC0623061F49FB777
:10040000F8943881822F809583238883EC912E2B5A
:100410002C939FBF06C08FB7F894E8812E2B2883BA
:100420008FBFDF91CF9108953FB7F894809120015D
:1004300090912101A0912201B091230126B5A89BA2
:1004400005C02F3F19F00196A11DB11D3FBFBA2F66
:10045000A92F982F8827820F911DA11DB11DBC01C6
:10046000CD0142E0660F771F881F991F4A95D1F78B
:1004700008958F929F92AF92BF92CF92DF92EF92A8
:10048000FF926B017C010E9414024B015C01C114BC
:10049000D104E104F104F1F00E941402DC01CB016B
:1004A00088199909AA09BB09883E9340A105B1059D
:1004B00070F321E0C21AD108E108F10888EE880E35
:1004C00083E0981EA11CB11CC114D104E104F10405
:1004D00019F7DDCFFF90EF90DF90CF90BF90AF90F6
:1004E0009F908F9008950F931F93DC0112968D912A
:1004F0009C9113976817790708F043C017968C9161
:100500001797882361F0489FA0011124452F289F49
:1005100090011124232F089F80011124012F1D9683
:100520008C911D971A969C911A971896ED91FC91B3
:100530001997891308C0CB01880F991F680F791F7D
:100540006E0F7F1F0AC0660F771F660F771F6E0F33
:100550007F1FFB01E80FF11D10821A968C911A97EC
:10056000FB01E80FF11D40831B968C911B97FB014B
:10057000E80FF11D20831C968C91FB01E80FF11D03
:1005800000831F910F910895CF92DF92EF92FF9217
:100590000F931F93CF93DF93CDB7DEB729970FB695
:1005A000F894DEBF0FBECDBF8C01DC0118968D9193
:1005B0009C911997892B09F4A3C00E941402F80199
:1005C000C684D784E088F188DC01CB018C199D09B1
:1005D000AE09BF098C329140A105B10570F3F894C2
:1005E000D80114968D919C9115979A8389831896BA
:1005F000ED91FC9119977F01BFEFEB1AFB0A808107
:100600008987F80190810288F389E02DD8015496FA
:100610008C91992309F430C09081982B9887908110
:10062000809589238F838F818C8388E08B83588585
:100630006F8149853B812C8189819A81D7015083C3
:1006400047FD252F3A952083262F39F0441F00C0FF
:1006500000006083000000C0F2CF38E04D9160835D
:100660000000019761F7D8015396FC93EE935297DF
:1006700049873B832C833AC09081982B988790813F
:10068000809589238F838F818E8388E08D83588521
:100690006F8149853D812E8189819A81D70150835F
:1006A00047FD252F00C000C0208300C000C000C04F
:1006B00000C000C060830000262F3A9541F0441F1F
:1006C000000000C000C000C000C000C0E8CF38E09B
:1006D0004D9100C0608300C0019709F7D80153967F
:1006E000FC93EE93529749873D832E839A838983A7
:1006F00078940E941402F80166877787808B918B2B
:1007000029960FB6F894DEBF0FBECDBFDF91CF9113
:100710001F910F91FF90EF90DF90CF9008950E946E
:10072000CF14EF92FF920F931F93CF93DF93EC01BF
:10073000198218821B821A821D821C826115710522
:10074000A9F17B01FB0101900020E9F731978F01AE
:10075000061B170BB8016F5F7F4F80E090E00E948F
:100760000514009759F0998388831B830A832C8191
:100770003D81232B81F4FC0110820DC08881998179
:10078000009711F00E946D13198218821D821C823D
:100790001B821A820BC01D830C83B701DF91CF919E
:1007A0001F910F91FF90EF900C94E414DF91CF9183
:1007B0001F910F91FF90EF900895CF92DF92EF92EB
:1007C000FF921F93CF93DF93EC017B01142F1982CB
:1007D0001F821E861F86188A198AC90146E09695CF
:1007E00087954A95E1F7482F43704D87C90154E03A
:1007F000969587955A95E1F783708A87B901769522
:1008000067957695679563706B87922F93709C8739
:1008100091E02F3F310511F008F090E098834817E0
:1008200019F084E090E002C083E090E08E9D6001CA
:100830008F9DD00C9E9DD00C1124DD82CC82C601F0
:100840000E94D81299878887009741F0A60160E03E
:1008500070E00E94DD14FB82EA8204C01D821C82CB
:100860001B821A821E838981882339F061E0812FDF
:100870000E94D801812F0E948700812F90E0FC0107
:10088000E458FF4FE491F0E0EE0FFF1FEE58FF4FEA
:10089000259134913B8B2A8BFC01E057FF4FE4916B
:1008A000EC8BDF91CF911F91FF90EF90DF90CF9075
:1008B00008952F923F924F925F926F927F928F9204
:1008C0009F92AF92BF92CF92DF92EF92FF920F93DF
:1008D0001F93CF93DF93CDB7DEB7C053D1400FB690
:1008E000F894DEBF0FBECDBF4C0184E291E00E94C0
:1008F0002E01181619060CF004C15E013BEAA30E86
:10090000B11C8E01055D1E4FF5011192E017F10734
:10091000E1F7F401C401805C9F4F11921192E81736
:10092000F907D9F7FE013596CE0181559F4FDF01BA
:1009300014971C9211961C9211961C9211961C925F
:1009400010823596E817F90791F7750184E291E076
:100950000E942E0118161906CCF784E291E00E943D
:100960000C01F70181937F01853441F0E017F10715
:1009700069F784E291E00E940C01C3C080E090E03E
:10098000E12CF12CF50121915F012B3309F09BC083
:10099000F5E0FE9D6001FF9DD00C112441E050E088
:1009A0004C0F5D1FC40ED51EB601C8010E949103F5
:1009B000F801608071806114710431F0C3010E94FC
:1009C00006101B012C0103C0212C312C2101C30175
:1009D0000E946D13252024202320209421F4370128
:1009E000660C771C37C0B601C8010E949103F8015C
:1009F00020813181C90144815581420F531F8417E1
:100A00009507E1F02115310529F410921A01EAE168
:100A1000F1E001C0FC01608160330CF474C0211569
:100A2000310529F410921A01EAE1F1E001C0FC015C
:100A3000019660816A330CF066C0E1CF4424439490
:100A4000F801808191810E946D133701660C771C3B
:100A50004420D1F0680C791CB601C8010E949103B2
:100A6000F801C080D180C114D10421F0C6010E94D8
:100A7000061003C060E070E0CB01F3017183608376
:100A8000C6010E946D1315C0D401A60DB71D35E037
:100A90003E9DF0013F9DF00D112441E050E04C0FD0
:100AA0005D1FE40FF51F8081082E000C990B8D93BC
:100AB0009C935FEFE51AF50A80E2E816F1040CF565
:100AC00080E090E019C0253411F481E01EC02A3086
:100AD00099F035E03E9DF0013F9DF00D1124E80FA7
:100AE000F91F41E050E04C0F5D1FE40FF51F20831C
:100AF0000196853091052CF4A016B10609F042CF7D
:100B0000E4CF80E002C0412C9BCFC05DDE4F0FB62A
:100B1000F894DEBF0FBECDBFDF91CF911F910F9133
:100B2000FF90EF90DF90CF90BF90AF909F908F900D
:100B30007F906F905F904F903F902F900895CF934C
:100B4000DF93CDB7DEB7C65BD2400FB6F894DEBFF9
:100B50000FBECDBFE0913401F091350182E080837A
:100B6000E0913001F09131011082E0913201F09179
:100B7000330181E0808310923C01E0913801F091D3
:100B8000390186E08083E0913601F0913701808160
:100B900080618083E0913601F09137018081886027
:100BA0008083E0913601F0913701808180688083F5
:100BB000E0913601F091370180818F7D8083FE01C5
:100BC000E759FD4FCF0140968F0111921192E8171E
:100BD000F907D9F782E5C256DD4F8883CE59D24056
:100BE00086E0C156DD4F8883CF59D240C456DD4FD1
:100BF0001882CC59D240C356DD4F1882CD59D2400D
:100C00008FEFC756DD4F8883C959D240C656DD4F96
:100C10008883CA59D240C556DD4F8883CB59D2400C
:100C200041E050E068E171E084E291E00E94CE0092
:100C3000CE01875D9D4F0E9459048823C9F3C55D8D
:100C4000DD4F28813981CB52D2402F3047E2340723
:100C500089F1C35DDD4F88819981CD52D240FC017D
:100C6000EE0FFF1FE00FF11F31832083A1E9B2E0F7
:100C7000AC0FBD1F8A0F9B1FCF5CDD4FA881B981D0
:100C8000C153D240ECE9F2E0EC0FFD1FAE0FBF1FE5
:100C9000C15DDD4FE881F981CF52D2402EE932E0CB
:100CA0002C0F3D1FE20FF31F3C912081230FDC012D
:100CB0002C93BECFFE0131967F019E0127553E4FFA
:100CC000C056DD4F39832883C05AD24069015F0185
:100CD0001601C056DD4F88819981C05AD240281A2A
:100CE000390ACE01875D9D4F0E9459048823C9F3BC
:100CF000C55DDD4F88819981CB52D2408F30A7E20C
:100D00009A0769F0F501819391935F01C35DDD4F0F
:100D10008881CD52D240D6018D936D01D9CFCF5667
:100D2000DD4F2881C159D24030E0F80160817181E6
:100D300040E0CE018F5F9E4F0E94DD03CE56DD4F17
:100D40002881C259D24030E0D80112966D917C9131
:100D5000139741E081E091E08C0F9D1F45960E9422
:100D6000DD03CD56DD4F2881C359D24030E0F80174
:100D70006481758142E081E091E08C0F9D1F8A962D
:100D80000E94DD03CC56DD4F2881C459D24030E0AB
:100D9000D80116966D917C91179743E081E091E020
:100DA0008C0F9D1FCF960E94DD03CB56DD4F28810F
:100DB000C559D24030E0F8016085718544E0CE012C
:100DC0008B5A9E4F0E94DD03CA56DD4F2881C659BB
:100DD000D24030E0D8011A966D917C911B9745E086
:100DE000CE0186599E4F0E94DD03C956DD4F2881F2
:100DF000C759D24030E0F8016485758546E0CE01E0
:100E000081589E4F0E94DD03C856DD4F2881C85986
:100E1000D24030E0D8011E966D917C911F9747E03B
:100E2000CE018C569E4F0E94DD03CC24C394DC2C53
:100E3000CC0EDD1EB6E0CB0ED11C8E010F5F1E4F17
:100E4000BB24B394F80182819381892B89F0D60168
:100E50008C9187FD07C061E00E94D801F601808176
:100E60000E948700F6013597B082C8010E94C40233
:100E70000B5E1F4FF5E1CF0ED11CC056DD4F288110
:100E80003981C05AD24002171307E1F6AE01475527
:100E90005E4F6A0115E1C601C056DD4F28813981D8
:100EA000C05AD240821B930B8215930504F5D701DB
:100EB0006D917D917D01F60181916F01AA24A3942A
:100EC000BA2CAC0EBD1E189FA00CB11C11240FEF44
:100ED0002FEF4FEFC5010E947302C5010E94C402AB
:100EE00065E070E080E090E00E943902D4CF49E2F2
:100EF00052E04C0F5D1F4A5F5F4FC055DD4F598375
:100F00004883C05BD24085E892E08C0F9D1F0C9611
:100F1000CE54DD4F99838883C25BD240CE01875D7A
:100F20009D4F0E9459048823C9F3C75DDD4F888116
:100F30009981C952D2408934910509F454C644F4C8
:100F40008234910509F4E0C28634910551F0E6CF70
:100F50008335910509F484C68735910509F4B9C331
:100F6000DDCFC55DDD4F08811981CB52D24017FD21
:100F700003C02016310614F400E010E0C35DDD4F1D
:100F800088819981CD52D240CC55DD4F398228825B
:100F9000C45AD24097FD09C08215930534F4CC554C
:100FA000DD4F99838883C45AD240C95CDD4F688184
:100FB0007981C753D240072E000C880B990B0E94F1
:100FC000491020E030E048EC52E40E940A124B0144
:100FD0005C01C756DD4F6881C959D24070E080E09E
:100FE00090E00E9447102B013C017E0197E8E91A2E
:100FF0009DEFF90AC15DDD4F68817981CF52D24002
:10100000072E000C880B990B0E9449109B01AC0124
:10101000C301B2010E949D11A50194010E94A81074
:10102000D7016D937D938D939C931397CB57DD4F91
:10103000488259826A827B82C558D240C656DD4FAB
:101040006881CA59D24070E080E090E00E94471069
:101050002B013C01CF5CDD4F68817981C153D240C7
:10106000072E000C880B990B0E9449109B01AC01C4
:10107000C301B2010E949D11A50194010E94A81014
:10108000F7016483758386839783C757DD4F488252
:1010900059826A827B82C958D240C556DD4F688129
:1010A000CB59D24070E080E090E00E9447102B01C5
:1010B0003C01CD5CDD4F68817981C353D240072E5E
:1010C000000C880B990B0E9449109B01AC01C301D5
:1010D000B2010E949D11A50194010E94A810D701A0
:1010E00018966D937D938D939C931B97C357DD4FFB
:1010F000488259826A827B82CD58D240F801EE0F35
:10110000FF1FC455DD4FF983E883CC5AD240CC543D
:10111000DD4FE882C45BD240CB54DD4FF882C55B23
:10112000D24029EA31E02C0F3D1F200F311FC2555C
:10113000DD4F39832883CE5AD240C15DDD4FA88070
:10114000B980CF52D240CF5CDD4FC880D980C15327
:10115000D240CD5CDD4FE880F980C353D240B50169
:10116000BB0C880B990B0E9449109B01AC01882491
:101170008394912CCB57DD4F688179818A819B8143
:10118000C558D2400E944210882311F0812C912C26
:10119000B601DD0C880B990B0E9449109B01AC0134
:1011A00001E010E0C757DD4F688179818A819B811A
:1011B000C958D2400E944210882311F000E010E08C
:1011C000800E911EB701FF0C880B990B0E944910ED
:1011D0009B01AC0101E010E0C357DD4F68817981CC
:1011E0008A819B81CD58D2400E944210882311F001
:1011F00000E010E0080D191D0330110509F474C159
:10120000C95CDD4F68817981C753D240072E000C3D
:10121000880B990B0E94491020E030E048EC52E422
:101220000E940A12C855DD4F688379838A839B83A5
:10123000C85AD2408E010B571D4FC055DD4F288133
:101240003981C05BD240CA55DD4F39832883C65AE5
:10125000D240CC54DD4F3881C45BD240CE55DD4FF7
:101260003883C25AD240CB54DD4F4881C55BD2404F
:10127000CD55DD4F4883C35AD240CE55DD4FA881AE
:10128000B981C25AD2402D913D914D915C91F801A6
:1012900060817181828193810E949D112B013C01AB
:1012A000D8016D937D938D939C931397CA55DD4F11
:1012B000E881F981C65AD24061917191CA55DD4FDA
:1012C000F983E883C65AD240072E000C880B990B8D
:1012D0000E9449104B015C019B01AC01C301B201AA
:1012E0000E949D11C855DD4F288139814A815B815B
:1012F000C85AD2400E94A8106B017C01CE55DD4F28
:10130000A881B981C25AD2406D937D938D939D93EC
:10131000CE55DD4FB983A883C25AD24020E030E0D9
:10132000A901C301B2010E94421087FF05C0F80164
:10133000108211821282138220E030E04FE753E4E2
:10134000D8016D917D918D919C910E94AB121816E0
:101350004CF480E090E0AFE7B3E4F8018083918340
:10136000A283B38320E030E0A901C701B6010E9447
:10137000421087FF11C020E030E040E85FEBC7017A
:10138000B6010E94AB1287FD16C0D8018D929D92C6
:10139000AD92BC9213970FC020E030E040E85FE3CD
:1013A000C701B6010E94421018162CF0F801808285
:1013B0009182A282B3820C5F1F4FCE54DD4F2881F1
:1013C0003981C25BD2400217130709F056CFC255CC
:1013D000DD4FE880F980CE5AD240C12CD12CC70114
:1013E000C056DD4FE881F981C05AD2408E1B9F0B59
:1013F000CC55DD4F28813981C45AD24082179307DA
:101400000CF04DC0D7011D917D01C357DD4F6881A0
:1014100079818A819B81CD58D2400E947C12062F0F
:10142000C757DD4F688179818A819B81C958D24035
:101430000E947C12262FCB57DD4F688179818A81EB
:101440009B81C558D240CA54DD4F2883C65BD24029
:101450000E947C12462FC455DD4FE881F981CC5A99
:10146000D240EC0DFD1D81E090E08C0F9D1FE80F38
:10147000F91F60817181CA54DD4F2881C65BD2405B
:1014800081E091E08C0F9D1FA5E11A9F800D911DB9
:1014900011240E947302B2E0CB0ED11CA0CF8E01AA
:1014A0000F5F1E4FD80112968D919C911397892B37
:1014B00019F0C8010E94C4020B5E1F4FC056DD4FD9
:1014C000E881F981C05AD2400E171F0759F7CB5C4B
:1014D000DD4F68817981C553D240072E000C880BFF
:1014E000990B0E94390229CEC756DD4FA882C959EF
:1014F000D240C656DD4FC882CA59D240C556DD4FCC
:10150000E882CB59D2400ACDC55DDD4FE880F98035
:10151000CB52D240F7FC03C02E143F0414F4E12C4C
:10152000F12CC35DDD4F88819981CD52D24061019C
:1015300097FD04C0821593050CF46C0189EAA82E6E
:10154000BB24B394AC0EBD1EAE0CBF1CEE0CFF1C36
:10155000812C912CC501C056DD4FA881B981C05A9C
:10156000D2408A1B9B0B8C159D050CF09BC0D501AE
:101570001D915D01C556DD4F6881CB59D24070E0A9
:1015800080E090E00E9449102B013C01CD5CDD4FD2
:1015900068817981C353D240072E000C880B990BC8
:1015A0000E94491020E030E048EC52E40E940A1208
:1015B0009B01AC01C301B2010E94A8100E947C12E1
:1015C000062FC656DD4F6881CA59D24070E080E0D0
:1015D00090E00E9449102B013C01CF5CDD4F6881F7
:1015E0007981C153D240072E000C880B990B0E94C1
:1015F000491020E030E048EC52E40E940A129B01BE
:10160000AC01C301B2010E94A8100E947C12CE5509
:10161000DD4F6883C25AD240C756DD4F6881C95931
:10162000D24070E080E090E00E9449102B013C0124
:10163000C15DDD4F68817981CF52D240072E000C09
:10164000880B990B0E94491020E030E048EC52E4EE
:101650000E940A129B01AC01C301B2010E94A810B2
:101660000E947C12462FF401EE0DFF1D21E030E0B8
:101670002C0F3D1FE20FF31F60817181CE55DD4FAE
:101680002881C25AD24081E091E08C0F9D1F35E144
:10169000139F800D911D11240E94730242E0840E5D
:1016A000911C58CF8E010F5F1E4FF80182819381EC
:1016B000892B19F0C8010E94C4020B5E1F4FC0564F
:1016C000DD4F28813981C05AD2400217130769F7CC
:1016D00025CCC55DDD4FC880D980CB52D240D7FC28
:1016E00003C02C143D0414F4C12CD12CC35DDD4F78
:1016F00088819981CD52D240710197FD04C0821535
:1017000093050CF47C01C601880F991F41E050E05D
:101710004C0F5D1F480F591FC455DD4F5983488337
:10172000CC5AD240C701880F991FA1E0B0E0AC0F9E
:10173000BD1FA80FB91FCC55DD4FB983A883C45A6C
:10174000D240E9EAF1E0EC0FFD1FEC0DFD1DC255A2
:10175000DD4FF983E883CE5AD240EC14FD040CF43B
:1017600029C2EC14FD0459F5C255DD4FA881B98199
:10177000CE5AD2408C91C455DD4FE881F981CC5AC4
:10178000D24060817181CD5CDD4F0881C353D2406E
:10179000CF5CDD4F2881C153D240C15DDD4F488110
:1017A000CF52D240A1E0B1E0AC0FBD1FE5E18E9F6A
:1017B000A00DB11D1124CD010E947302EAC1CC55C8
:1017C000DD4FE881F981C45AD240329720813181BE
:1017D00049EA51E04C0F5D1F4E0D5F1DC855DD4FAE
:1017E00059834883C85AD240FA0131978081A1E0D9
:1017F000B1E0AC0FBD1FE5E18E9FA00DB11D11241E
:10180000CE55DD4FB983A883C25AD24012968D912E
:101810009C9113972817390708F032C11D966C91D7
:101820001D971A96FC911A97CA55DD4FF883C65A30
:10183000D24018964D915C91199717968C90862FEF
:1018400090E06F137AC08901000F111F020F131F60
:10185000040F151F882009F44FC0912CA12CB12C26
:10186000F801E80FF91F608170E0762F6627072ED8
:10187000000C880B990BA50194010E94B01239014C
:1018800055244424CE55DD4FA881B981C25AD24097
:101890001B968C91F801E80FF11D608170E0762FA6
:1018A0006627072E000C880B990BA50194010E9456
:1018B000B012B42FA32F922F8827482A592A6A2AB8
:1018C0007B2ACE55DD4FE881F981C25AD24084850A
:1018D000F801E80FF11D608170E0762F6627072E72
:1018E000000C880B990BA50194010E94B012422AAA
:1018F000532A642A752AC7C0F801E80FF91F8081AE
:10190000CE55DD4FA881B981C25AD2401B969C9119
:101910001B97F801E90FF11D4080512C612C712CAF
:10192000762C652C542C4424682A1C968C91F80142
:10193000E80FF11D8081482AA6C0220F331F220F15
:10194000331F8A01020F131F882009F46BC0912CEA
:10195000A12CB12CF801E80FF91F608170E0762FFF
:101960006627072E000C880B990BA50194010E9495
:10197000B012722E662455244424F801CA55DD4F56
:10198000B881C65AD240EB0FF11D608170E0762F0E
:101990006627072E000C880B990BA50194010E9465
:1019A000B012D90199278827482A592A6A2A7B2AFE
:1019B000CE55DD4FE881F981C25AD2408485F801C5
:1019C000E80FF11D608170E0762F6627072E000C6E
:1019D000880B990BA50194010E94B012422A532A48
:1019E000642A752ACE55DD4FA881B981C25AD240EA
:1019F0001B968C91F801E80FF11D608170E0762F45
:101A00006627072E000C880B990BA50194010E94F4
:101A1000B012B42FA32F922F8827482A592A6A2A56
:101A20007B2A31C0F801E80FF91F8081F801CA55FF
:101A3000DD4FB881C65AD240EB0FF11D4080512CCA
:101A4000612C712C320155244424782ACE55DD4F67
:101A5000E881F981C25AD2408485F801E80FF11D6E
:101A60008081482ACE55DD4FA881B981C25AD24023
:101A70001B968C91F801E80FF11D8081582A03C054
:101A8000412C512C3201CC55DD4FE881F981C45AEB
:101A9000D24080819181C855DD4FA881B981C85A53
:101AA000D2402C91E1E0F1E0EC0FFD1FB5E12B9F5E
:101AB000E00DF11D1124228133818217930708F074
:101AC00068C0A30166277727CE55DD4F4883C25AE9
:101AD000D240BB24A72C962C852CCA55DD4F88827A
:101AE000C65AD240142D37813323A1F0439FB00151
:101AF0001124CE55DD4F7883C25AD240839EA00177
:101B00001124CA55DD4F5883C65AD240439EA001C6
:101B10001124152F0585228560857185AC0102137E
:101B200007C0440F551F840F951F860F971F16C0BF
:101B3000440F551F440F551FCB01840F951F472C91
:101B4000552466247724AC01400F511D332321F026
:101B5000439E20011124452CDA014C922285AC01D0
:101B6000420F511D9A01CE55DD4F4881C25AD240D5
:101B7000D9014C932385DC01A20FB11DCA55DD4F5D
:101B80004881C65AD2404C932485FC01E20FF11DD6
:101B9000108351E0E51AF108CC55DD4F8881998119
:101BA000C45AD2400297CC55DD4F99838883C45ADA
:101BB000D240D3CD8E010F5F1E4FD80112968D916A
:101BC0009C911397892B19F0C8010E94C4020B5EE7
:101BD0001F4FC056DD4FE881F981C05AD2400E1721
:101BE0001F0759F79BC9C35DDD4F68817981CD52CD
:101BF000D240C55DDD4F28813981CB52D24015E1FD
:101C0000129FC001139F900D1124CD5CDD4F088100
:101C1000C353D240CF5CDD4F2881C153D240C15D58
:101C2000DD4F4881CF52D240A1E0B1E0AC0FBD1FE3
:101C30008A0F9B1F0E947302C55DDD4F2881398189
:101C4000CB52D240129FC001139F900D1124E1E0AE
:101C5000F1E0EC0FFD1F8E0F9F1F0E94C4025EC9B2
:101C6000C55DDD4FE880F980CB52D240F7FC03C060
:101C70002E143F0414F4E12CF12CC35DDD4F888158
:101C80009981CD52D240510197FD04C08215930530
:101C90000CF45C0129EAC22EDD24D394CC0EDD1EA7
:101CA000CE0CDF1C3701660C771C812C912CC601F1
:101CB000C056DD4F28813981C05AD240821B930B18
:101CC0008A159B050CF5D6018D916D01F401E60D89
:101CD000F71D21E030E02C0F3D1FE20FF31F608164
:101CE000718100E020E040E0A1E0B1E0AC0FBD1F59
:101CF000E5E18E9FA00DB11D1124CD010E9473025C
:101D0000F2E08F0E911CD3CFAE01475D5D4F4A01CB
:101D10002A015AE3450E511CEA14FB0424F08E01FB
:101D20000F5F1E4F5FC03701660C771CC12CD12C92
:101D3000D40118968D919C911997C816D906B4F5BF
:101D4000F601EE0DFF1D89EA91E08C0F9D1FE80F53
:101D5000F91F8081F601EE0FFF1FE60DF71DA1E0D0
:101D6000B0E0AC0FBD1FEA0FFB1F60817181C5564B
:101D7000DD4F0881CB59D240C656DD4F2881CA5964
:101D8000D240C756DD4F4881C959D240E1E0F1E069
:101D9000EC0FFD1F35E1839FE00DF11D1124CF01F4
:101DA0000E9473024FEFC41AD40AC2CFB2E08B0E66
:101DB000911C8414950409F4B2CFC15DDD4F888174
:101DC0009981CF52D240E80EF91EA6CF0B5E1F4F6D
:101DD000C056DD4F28813981C05AD24002171307FF
:101DE00009F49CC8F80182819381892B79F3C80199
:101DF0000E94C402EBCF1F920F920FB60F921124D4
:101E00002F933F934F935F936F937F938F939F9302
:101E1000AF93BF93EF93FF9384E291E00E9444015C
:101E2000FF91EF91BF91AF919F918F917F916F91B2
:101E30005F914F913F912F910F900FBE0F901F9088
:101E400018951F920F920FB60F9211242F938F9314
:101E50009F93EF93FF93E0913401F09135018081DE
:101E6000E0913A01F0913B0182FD12C09081809196
:101E70003D018F5F8F7320913E01821751F0E091F9
:101E80003D01F0E0EC5DFE4F958F80933D0101C078
:101E90008081FF91EF919F918F912F910F900FBEB5
:101EA0000F901F9018951F920F920FB60F9211244A
:101EB0002F933F938F939F93AF93BF9380911C0178
:101EC00090911D01A0911E01B0911F0130911B0145
:101ED00023E0230F2D3720F40196A11DB11D05C06D
:101EE00026E8230F0296A11DB11D20931B018093AC
:101EF0001C0190931D01A0931E01B0931F018091BE
:101F0000200190912101A0912201B091230101961D
:101F1000A11DB11D8093200190932101A093220166
:101F2000B0932301BF91AF919F918F913F912F91DA
:101F30000F900FBE0F901F901895789484B5826013
:101F400084BD84B5816084BD85B5826085BD85B55D
:101F5000816085BDEEE6F0E0808181608083E1E80C
:101F6000F0E0108280818260808380818160808344
:101F7000E0E8F0E0808181608083E1EBF0E0808147
:101F800084608083E0EBF0E0808181608083EAE719
:101F9000F0E08081846080838081826080838081A2
:101FA000816080838081806880831092C1000E945C
:101FB0009F05E4E2F1E01382128288EE93E0A0E054
:101FC000B0E084839583A683B7838AE091E0918310
:101FD000808385EC90E09587848784EC90E09787F8
:101FE000868780EC90E0918B808B81EC90E0938BE6
:101FF000828B82EC90E0958B848B86EC90E0978BC3
:10200000868B118E128E138E148E08951F93FC01F1
:1020100099278827BC01E89411911032E9F319300F
:1020200010F01E30C8F31B3251F01D3249F4689491
:1020300006C00E942D10610F711D811D911D11910F
:1020400010531A30B0F33EF49095809570956195D9
:102050007F4F8F4F9F4F1F910895592F482F372F34
:10206000262F660F771F881F991F660F771F881FFF
:10207000991F620F731F841F951F660F771F881F9C
:10208000991F08950E94841008F481E00895E8944F
:1020900009C097FB3EF490958095709561957F4FB0
:1020A0008F4F9F4F9923A9F0F92F96E9BB2793955E
:1020B000F695879577956795B795F111F8CFFAF46E
:1020C000BB0F11F460FF1BC06F5F7F4F8F4F9F4F9F
:1020D00016C0882311F096E911C0772321F09EE8FD
:1020E000872F762F05C0662371F096E8862F70E063
:1020F00060E02AF09A95660F771F881FDAF7880F3D
:102100009695879597F90895990F0008550FAA0B92
:10211000E0E8FEEF16161706E807F907C0F01216FA
:102120001306E407F50798F0621B730B840B950BFD
:1021300039F40A2661F0232B242B252B21F4089552
:102140000A2609F4A140A6958FEF811D811D0895EF
:102150000E94BB100C942C110E941E1138F00E949A
:10216000251120F0952311F00C9415110C941B11DE
:1021700011240C9460110E943D1170F3959FC1F3DE
:10218000950F50E0551F629FF001729FBB27F00D25
:10219000B11D639FAA27F00DB11DAA1F649F66277A
:1021A000B00DA11D661F829F2227B00DA11D621FC9
:1021B000739FB00DA11D621F839FA00D611D221F83
:1021C000749F3327A00D611D231F849F600D211D67
:1021D000822F762F6A2F11249F5750409AF0F1F0EA
:1021E00088234AF0EE0FFF1FBB1F661F771F881F53
:1021F00091505040A9F79E3F510580F00C94151165
:102200000C9460115F3FE4F3983ED4F38695779584
:102210006795B795F795E7959F5FC1F7FE2B880FF8
:10222000911D9695879597F9089597F99F6780E88E
:1022300070E060E008959FEF80EC089500240A9418
:102240001616170618060906089500240A94121691
:102250001306140605060895092E0394000C11F4C4
:10226000882352F0BB0F40F4BF2B11F460FF04C071
:102270006F5F7F4F8F4F9F4F089557FD9058440FCA
:10228000551F59F05F3F71F04795880F97FB991FD5
:1022900061F09F3F79F08795089512161306140692
:1022A000551FF2CF4695F1DF08C01616170618061F
:1022B000991FF1CF86957105610508940895E894FA
:1022C000BB2766277727CB0197F908952F923F9276
:1022D0004F925F926F927F928F929F92AF92BF9236
:1022E000CF92DF92EF92FF920F931F93CF93DF93E2
:1022F000CDB7DEB7CA1BDB0B0FB6F894DEBF0FBE3F
:10230000CDBF09942A88398848885F846E847D848B
:102310008C849B84AA84B984C884DF80EE80FD808D
:102320000C811B81AA81B981CE0FD11D0FB6F89403
:10233000DEBF0FBECDBFED0108955058BB27AA27C1
:102340000E94B5110C942C110E941E1138F00E94AD
:10235000251120F039F49F3F19F426F40C941B1139
:102360000EF4E095E7FB0C941511E92F0E943D1146
:1023700058F3BA17620773078407950720F079F4BA
:10238000A6F50C945F110EF4E0950B2EBA2FA02D3C
:102390000B01B90190010C01CA01A0011124FF2712
:1023A000591B99F0593F50F4503E68F11A16F0400D
:1023B000A22F232F342F4427585FF3CF469537950C
:1023C0002795A795F0405395C9F77EF41F16BA0BD1
:1023D000620B730B840BBAF09150A1F0FF0FBB1F7F
:1023E000661F771F881FC2F70EC0BA0F621F731FC8
:1023F000841F48F4879577956795B795F7959E3F25
:1024000008F0B0CF9395880F08F09927EE0F9795B5
:10241000879508950E941E120C942C110E9425117C
:1024200058F00E941E1140F029F45F3F29F00C94EF
:10243000151151110C9460110C941B110E943D1147
:1024400068F39923B1F3552391F3951B550BBB27E3
:10245000AA2762177307840738F09F5F5F4F220F28
:10246000331F441FAA1FA9F335D00E2E3AF0E0E81F
:1024700032D091505040E695001CCAF72BD0FE2F69
:1024800029D0660F771F881FBB1F261737074807FD
:10249000AB07B0E809F0BB0B802DBF01FF279358B5
:1024A0005F4F3AF09E3F510578F00C9415110C9453
:1024B00060115F3FE4F3983ED4F386957795679576
:1024C000B795F7959F5FC9F7880F911D96958795EA
:1024D00097F90895E1E0660F771F881FBB1F621709
:1024E00073078407BA0720F0621B730B840BBA0BC7
:1024F000EE1F88F7E09508950E94451188F09F57D8
:1025000098F0B92F9927B751B0F0E1F0660F771F17
:10251000881F991F1AF0BA95C9F714C0B13091F00D
:102520000E945F11B1E008950C945F11672F782F1E
:102530008827B85F39F0B93FCCF3869577956795D2
:10254000B395D9F73EF490958095709561957F4F3E
:102550008F4F9F4F08950E94841008F48FEF0895C5
:10256000A1E21A2EAA1BBB1BFD010DC0AA1FBB1F97
:10257000EE1FFF1FA217B307E407F50720F0A21B09
:10258000B30BE40BF50B661F771F881F991F1A9476
:1025900069F760957095809590959B01AC01BD01A0
:1025A000CF010895EE0FFF1F0590F491E02D0994DF
:1025B000CF93DF938230910510F482E090E0E091B8
:1025C000C301F091C40120E030E0C0E0D0E03097DA
:1025D00011F14081518148175907C0F04817590738
:1025E00061F482819381209719F09B838A832BC0A9
:1025F0009093C4018093C30126C02115310519F0C1
:102600004217530718F49A01BE01DF01EF0102805F
:10261000F381E02DDCCF2115310509F1281B390BA1
:102620002430310590F412968D919C911397611589
:10263000710521F0FB019383828304C09093C40150
:102640008093C301FD01329644C0FD01E20FF31FE8
:1026500081939193225031092D933C933AC020915C
:10266000C1013091C201232B41F42091020130912C
:1026700003013093C2012093C101209100013091E8
:1026800001012115310541F42DB73EB740910401F8
:1026900050910501241B350BE091C101F091C2015D
:1026A000E217F307A0F42E1B3F0B2817390778F029
:1026B000AC014E5F5F4F2417350748F04E0F5F1F88
:1026C0005093C2014093C1018193919302C0E0E015
:1026D000F0E0CF01DF91CF9108950F931F93CF9337
:1026E000DF93009709F48CC0FC01329713821282A9
:1026F0000091C3011091C4010115110581F42081DD
:102700003181820F931F2091C1013091C20128179E
:10271000390779F5F093C201E093C10171C0D80186
:1027200040E050E0AE17BF0750F412962D913C9157
:102730001397AD012115310509F1D901F3CF9D01A1
:10274000DA013383228360817181860F971F82179C
:10275000930769F4EC0128813981260F371F2E5F1A
:102760003F4F318320838A819B8193838283452BD2
:1027700029F4F093C401E093C30142C01396FC9383
:10278000EE931297ED01499159919E01240F351F47
:10279000E217F30771F480819181840F951F0296EF
:1027A00011969C938E938281938113969C938E9322
:1027B0001297E0E0F0E0D80112968D919C9113976A
:1027C000009719F0F8018C01F6CF8D919C9198013A
:1027D0002E5F3F4F820F931F2091C1013091C201A4
:1027E0002817390769F4309729F41092C401109220
:1027F000C30102C0138212821093C2010093C1016F
:10280000DF91CF911F910F910895A0E0B0E0EBE030
:10281000F4E10C946A11EC01009721F4CB010E94C1
:10282000D812B8C0FC01E60FF71F9C0122503109F5
:10283000E217F30708F4ACC0D9010D911C91119770
:1028400006171707B0F00530110508F49FC0C8013E
:1028500004978617970708F499C002501109061BC0
:10286000170B019311936D937C93CF010E946D130D
:102870008DC05B01A01AB10A4C01800E911EA0917F
:10288000C301B091C40140E050E0E12CF12C10975D
:1028900009F44AC0A815B905D1F56D907C9011973F
:1028A000630182E0C80ED11CCA14DB0480F1A301CD
:1028B0004A195B096A0182E0C80ED11C1296BC90CD
:1028C00012971396AC91B5E0CB16D10440F0B282CA
:1028D000A38351834083D9016D937C930AC00E5F1B
:1028E0001F4FC301800F911FF90191838083EB2D4E
:1028F000FA2FE114F10431F0D7011396FC93EE9313
:10290000129744C0F093C401E093C3013FC08D917E
:102910009C9111974817590708F4AC017D01129654
:102920000D90BC91A02DB3CF8091C1019091C201B7
:1029300088159905E1F446175707C8F480910001FE
:1029400090910101009741F48DB79EB74091040129
:1029500050910501841B950BE817F907C8F4F09313
:10296000C201E093C101F901718360830FC0CB0103
:102970000E94D8127C01009759F0A801BE010E9464
:10298000D414CE010E946D13C70104C0CE0102C051
:1029900080E090E0CDB7DEB7EEE00C94861181E0E8
:1029A00090E0F8940C94EB14FB01DC0102C0019060
:1029B0000D9241505040D8F70895DC0101C06D934D
:1029C00041505040E0F70895FB01DC0101900D9269
:0A29D0000020E1F70895F894FFCF0E
:1029DA000000C5018000000000006501CE00FD0076
:0A29EA00AC012E010C012001520087
:00000001FF
