:100000000C945D000C9485000C9485000C94850084
:100010000C9485000C9485000C9485000C9485004C
:100020000C9485000C9485000C9485000C9485003C
:100030000C9485000C9485000C9485000C9485002C
:100040000C941C0E0C9485000C94EA0D0C94C40DB9
:100050000C9485000C9485000C9485000C9485000C
:100060000C9485000C9485000000000024002700FB
:100070002A0000000000250028002B0004040404CE
:100080000404040402020202020203030303030342
:10009000010204081020408001020408102001021F
:1000A00004081020000000080002010000030407FB
:1000B0000000000000000000A20E11241FBECFEFC0
:1000C000D8E0DEBFCDBF21E0AAE1B1E001C01D92C2
:1000D000A53CB207E1F711E0A0E0B1E0ECE6F7E201
:1000E00002C005900D92AA31B107D9F710E0CDE515
:1000F000D0E004C02197FE010E949B11CC35D107AE
:10010000C9F70E94660E0C94B4130C94000090E0A2
:10011000FC01EC55FF4F2491FC01E057FF4F349157
:10012000FC01E458FF4FE491EE23B9F1222339F1A9
:10013000233091F038F42130A9F0223001F584B554
:100140008F7D12C0273091F02830A1F02430B9F40F
:10015000809180008F7D03C0809180008F77809395
:1001600080000DC084B58F7784BD09C08091B00038
:100170008F7703C08091B0008F7D8093B000F0E056
:10018000EE0FFF1FEE58FF4FA591B4918FB7F89473
:10019000EC9130953E233C938FBF0895CF92DF9230
:1001A000EF92FF920F931F93CF93DF936C017A012D
:1001B0008B01C0E0D0E0CE15DF0589F0D8016D914C
:1001C0008D01D601ED91FC910190F081E02DC601E9
:1001D0000995892B11F47E0102C02196ECCFC7014D
:1001E000DF91CF911F910F91FF90EF90DF90CF9013
:1001F0000895089580E090E00895FC01538D448DAA
:10020000252F30E0842F90E0821B930B541710F0C1
:10021000CF96089501970895FC01918D828D9817CE
:1002200061F0828DDF01A80FB11D5D968C91928DDA
:100230009F5F9F73928F90E008958FEF9FEF0895D7
:10024000FC01918D828D981731F0828DE80FF11DA0
:10025000858D90E008958FEF9FEF0895FC01918DBB
:10026000228D892F90E0805C9F4F821B91098F73B4
:100270009927089584E291E00E942E0121E0892BC4
:1002800009F420E0822F0895FC01848DDF01A80F7E
:10029000B11DA35ABF4F2C91848D90E001968F73AE
:1002A0009927848FA689B7892C93A089B1898C91CD
:1002B00080648C93938D848D981306C00288F38993
:1002C000E02D80818F7D80830895EF92FF920F93C0
:1002D0001F93CF93DF93EC0181E0888F9B8D8C8DF2
:1002E000981305C0E889F989808185FD24C0F62E20
:1002F0000B8D10E00F5F1F4F0F731127E02E8C8DB9
:10030000E8120CC00FB607FCFACFE889F9898081A2
:1003100085FFF5CFCE010E944401F1CF8B8DFE0108
:10032000E80FF11DE35AFF4FF0820B8FEA89FB893A
:100330008081806207C0EE89FF896083E889F9893E
:1003400080818064808381E090E0DF91CF911F9174
:100350000F91FF90EF900895CF93DF93EC01888D7C
:100360008823C9F0EA89FB89808185FD05C0A889B9
:10037000B9898C9186FD0FC00FB607FCF5CF80813F
:1003800085FFF2CFA889B9898C9185FFEDCFCE0189
:100390000E944401E7CFDF91CF91089580E090E083
:1003A000892B29F00E943A0181110C9400000895D4
:1003B000CF93DF9390E0FC01E057FF4F2491FC01C5
:1003C000E458FF4F8491882361F190E0880F991FD2
:1003D000FC01E859FF4FC591D491FC01EE58FF4F45
:1003E000A591B491611109C09FB7F89488812095B7
:1003F00082238883EC912E230BC0623061F49FB777
:10040000F8943881822F809583238883EC912E2B5A
:100410002C939FBF06C08FB7F894E8812E2B2883BA
:100420008FBFDF91CF9108953FB7F894809120015D
:1004300090912101A0912201B091230126B5A89BA2
:1004400005C02F3F19F00196A11DB11D3FBFBA2F66
:10045000A92F982F8827820F911DA11DB11DBC01C6
:10046000CD0142E0660F771F881F991F4A95D1F78B
:1004700008958F929F92AF92BF92CF92DF92EF92A8
:10048000FF926B017C010E9414024B015C01C114BC
:10049000D104E104F104F1F00E941402DC01CB016B
:1004A00088199909AA09BB09883E9340A105B1059D
:1004B00070F321E0C21AD108E108F10888EE880E35
:1004C00083E0981EA11CB11CC114D104E104F10405
:1004D00019F7DDCFFF90EF90DF90CF90BF90AF90F6
:1004E0009F908F9008950F931F93DC0112968D912A
:1004F0009C9113976817790708F043C017968C9161
:100500001797882361F0489FA0011124452F289F49
:1005100090011124232F089F80011124012F1D9683
:100520008C911D971A969C911A971896ED91FC91B3
:100530001997891308C0CB01880F991F680F791F7D
:100540006E0F7F1F0AC0660F771F660F771F6E0F33
:100550007F1FFB01E80FF11D10821A968C911A97EC
:10056000FB01E80FF11D40831B968C911B97FB014B
:10057000E80FF11D20831C968C91FB01E80FF11D03
:1005800000831F910F910895CF92DF92EF92FF9217
:100590000F931F93CF93DF93CDB7DEB729970FB695
:1005A000F894DEBF0FBECDBF8C01DC0118968D9193
:1005B0009C911997892B09F4A3C00E941402F80199
:1005C000C684D784E088F188DC01CB018C199D09B1
:1005D000AE09BF098C329140A105B10570F3F894C2
:1005E000D80114968D919C9115979A8389831896BA
:1005F000ED91FC9119977F01BFEFEB1AFB0A808107
:100600008987F80190810288F389E02DD8015496FA
:100610008C91992309F430C09081982B9887908110
:10062000809589238F838F818C8388E08B83588585
:100630006F8149853B812C8189819A81D7015083C3
:1006400047FD252F3A952083262F39F0441F00C0FF
:1006500000006083000000C0F2CF38E04D9160835D
:100660000000019761F7D8015396FC93EE935297DF
:1006700049873B832C833AC09081982B988790813F
:10068000809589238F838F818E8388E08D83588521
:100690006F8149853D812E8189819A81D70150835F
:1006A00047FD252F00C000C0208300C000C000C04F
:1006B00000C000C060830000262F3A9541F0441F1F
:1006C000000000C000C000C000C000C0E8CF38E09B
:1006D0004D9100C0608300C0019709F7D80153967F
:1006E000FC93EE93529749873D832E839A838983A7
:1006F00078940E941402F80166877787808B918B2B
:1007000029960FB6F894DEBF0FBECDBFDF91CF9113
:100710001F910F91FF90EF90DF90CF9008950E946E
:100720009813EF92FF920F931F93CF93DF93EC01F7
:10073000198218821B821A821D821C826115710522
:10074000A9F17B01FB0101900020E9F731978F01AE
:10075000061B170BB8016F5F7F4F80E090E00E948F
:10076000CE12009759F0998388831B830A832C81CA
:100770003D81232B81F4FC0110820DC08881998179
:10078000009711F00E943612198218821D821C8275
:100790001B821A820BC01D830C83B701DF91CF919E
:1007A0001F910F91FF90EF900C94AD13DF91CF91BB
:1007B0001F910F91FF90EF900895CF92DF92EF92EB
:1007C000FF921F93CF93DF93EC017B01142F1982CB
:1007D0001F821E861F86188A198AC90146E09695CF
:1007E00087954A95E1F7482F43704D87C90154E03A
:1007F000969587955A95E1F783708A87B901769522
:1008000067957695679563706B87922F93709C8739
:1008100091E02F3F310511F008F090E098834817E0
:1008200019F084E090E002C083E090E08E9D6001CA
:100830008F9DD00C9E9DD00C1124DD82CC82C601F0
:100840000E94A11199878887009741F0A60160E076
:1008500070E00E94A613FB82EA8204C01D821C8203
:100860001B821A821E838981882339F061E0812FDF
:100870000E94D801812F0E948700812F90E0FC0107
:10088000E458FF4FE491F0E0EE0FFF1FEE58FF4FEA
:10089000259134913B8B2A8BFC01E057FF4FE4916B
:1008A000EC8BDF91CF911F91FF90EF90DF90CF9075
:1008B00008954F925F926F927F928F929F92AF9224
:1008C000BF92CF92DF92EF92FF920F931F93CF933D
:1008D000DF93CDB7DEB7C053D1400FB6F894DEBF7B
:1008E0000FBECDBF4C0184E291E00E942E0118168C
:1008F00019060CF0E4C06E014BEAC40ED11C8E0147
:10090000055D1E4FF6011192E017F107E1F7F401C2
:10091000C401805C9F4F11921192E817F907D9F733
:10092000FE013596CE0181559F4FDF0114971C9231
:1009300011961C9211961C9211961C92108235965B
:10094000E817F90791F7760184E291E00E942E0101
:1009500018161906CCF784E291E00E940C01F70109
:1009600081937F01853441F0E017F10769F784E254
:1009700091E00E940C01A3C080E090E0E12CF12CFA
:1009800025E0522EF60121916F012B3309F07AC038
:100990005E9C50015F9CB00C112441E050E04C0F74
:1009A0005D1FA40EB51EB501C8010E949103F80198
:1009B00020813181C90144815581420F531F841721
:1009C0009507E1F02115310529F410921A01EAE1A9
:1009D000F1E001C0FC01608160330CF472C02115AC
:1009E000310529F410921A01EAE1F1E001C0FC019D
:1009F000019660816A330CF064C0E1CF44244394D3
:100A0000F801808191810E9436123701660C771CB3
:100A10004420D1F0680C791CB501C8010E949103F3
:100A2000F801A080B180A114B10421F0C5010E9499
:100A3000CF0E03C060E070E0CB01F30171836083EF
:100A4000C5010E94361214C0D401A60DB71D5E9CCC
:100A5000F0015F9CF00D112441E050E04C0F5D1F50
:100A6000E40FF51F8081082E000C990B8D939C9349
:100A70005FEFE51AF50A80E2E816F10404F580E07C
:100A800090E018C0253411F481E01DC02A3091F0A7
:100A90005E9CF0015F9CF00D1124E80FF91F41E00E
:100AA00050E04C0F5D1FE40FF51F20830196853049
:100AB00091052CF4C016D10609F064CFE5CF80E093
:100AC00002C0412C9DCFC05DDE4F0FB6F894DEBF53
:100AD0000FBECDBFDF91CF911F910F91FF90EF908F
:100AE000DF90CF90BF90AF909F908F907F906F904E
:100AF0005F904F900895CF93DF93CDB7DEB7C45B7F
:100B0000D2400FB6F894DEBF0FBECDBFE0913401E6
:100B1000F091350182E08083E0913001F091310164
:100B20001082E0913201F091330181E080831092D4
:100B30003C01E0913801F091390186E08083E09139
:100B40003601F0913701808180618083E091360128
:100B5000F0913701808188608083E0913601F091C7
:100B60003701808180688083E0913601F091370100
:100B700080818F7D8083FE01E759FD4FCF01409634
:100B80008F0111921192E817F907D9F782E5C25641
:100B9000DD4F8883CE59D24086E0C156DD4F888331
:100BA000CF59D240C456DD4F1882CC59D240C356DB
:100BB000DD4F1882CD59D2408FEFC756DD4F888365
:100BC000C959D240C656DD4F8883CA59D240C5564E
:100BD000DD4F8883CB59D24041E050E068E171E0BD
:100BE00084E291E00E94CE00CE01875D9D4F0E947D
:100BF00059048823C9F3C55DDD4F28813981CB5263
:100C0000D2402F3047E2340789F1C35DDD4F888140
:100C10009981CD52D240FC01EE0FFF1FE00FF11F72
:100C200031832083A1E9B2E0AC0FBD1F8A0F9B1F67
:100C3000CF5CDD4FA881B981C153D240ECE9F2E02D
:100C4000EC0FFD1FAE0FBF1FC15DDD4FE881F981C5
:100C5000CF52D2402EE932E02C0F3D1FE20FF31F9E
:100C60003C912081230FDC012C93BECF1E01B7E500
:100C70002B1ABEEF3B0A7101FE0131966F019701FD
:100C800022193309CE55DD4F39832883C25AD24009
:100C9000CE01875D9D4F0E9459048823C9F3C55D2D
:100CA000DD4F88819981CB52D2408F3037E2930754
:100CB00069F0D6018D939D936D01C35DDD4F8881F1
:100CC000CD52D240F70181937F01D9CFCF56DD4F6E
:100CD0002881C159D24030E0D8016D917C9140E02B
:100CE000CE018F5F9E4F0E94DD03CE56DD4F2881DF
:100CF000C259D24030E0F8016281738141E081E065
:100D000091E08C0F9D1F45960E94DD03CD56DD4F6F
:100D10002881C359D24030E0D80114966D917C915E
:100D2000159742E081E091E08C0F9D1F8A960E940A
:100D3000DD03CC56DD4F2881C459D24030E0F801A4
:100D40006681778143E081E091E08C0F9D1FCF9613
:100D50000E94DD03CB56DD4F2881C559D24030E0DB
:100D6000D80118966D917C91199744E0CE018B5A69
:100D70009E4F0E94DD03CA56DD4F2881C659D240DE
:100D800030E0F8016285738545E0CE0186599E4FBB
:100D90000E94DD03C956DD4F2881C759D24030E09B
:100DA000D8011C966D917C911D9746E0CE0181582B
:100DB0009E4F0E94DD03C856DD4F2881C859D2409E
:100DC00030E0F8016685778547E0CE018C569E4F6E
:100DD0000E94DD03EE24E394FE2CEC0EFD1EF6E0F3
:100DE000EF0EF11C8E010F5F1E4FDD24D394D8014E
:100DF00012968D919C911397892B89F0F701808130
:100E000087FD07C061E00E94D801D7018C910E9444
:100E10008700F7013597D082C8010E94C4020B5E9B
:100E20001F4FB5E1EB0EF11C0215130501F771011F
:100E3000FE0131966F0115E1C70182199309CE5564
:100E4000DD4F28813981C25AD2408217930704F5B9
:100E5000D6016D917D916D01F70181917F01AA24E9
:100E6000A394BA2CAC0EBD1E189FA00CB11C11246B
:100E70000FEF2FEF4FEFC5010E947302C5010E94D3
:100E8000C40265E070E080E090E00E943902D4CFB7
:100E9000C901880F991F41E050E04C0F5D1F480FBA
:100EA000591FC655DD4F59834883CA5AD24089E23B
:100EB00092E08C0F9D1FCE96C255DD4F998388839B
:100EC000CE5AD240A5E8B2E0AC0FBD1F1C96C0556B
:100ED000DD4FB983A883C05BD240CE01875D9D4FB3
:100EE0000E9459048823C9F3C75DDD4F8881998129
:100EF000C952D2408934910509F464C50CF0C4C0CC
:100F00008234910509F4A4C28634910531F7CD5C91
:100F1000DD4F68817981C353D240072E000C880BC6
:100F2000990B0E94120F20E030E048EC52E40E943E
:100F3000D3106B017C01C756DD4F6881C959D2407F
:100F400070E080E090E00E94100F4B015C018E0188
:100F500007581D4FC55DDD4F68817981CB52D24066
:100F6000072E000C880B990B0E94120F9B01AC01FD
:100F7000C501B4010E946610A70196010E94710F7D
:100F8000D8016D937D938D939C931397CB57DD4F31
:100F900088829982AA82BB82C558D240C656DD4F4C
:100FA0006881CA59D24070E080E090E00E94100F42
:100FB0004B015C01C35DDD4F68817981CD52D24028
:100FC000072E000C880B990B0E94120F9B01AC019D
:100FD000C501B4010E946610A70196010E94710F1D
:100FE000F8016483758386839783C757DD4F8882B2
:100FF0009982AA82BB82C958D240C556DD4F68810A
:10100000CB59D24070E080E090E00E94100F4B017D
:101010005C01C15DDD4F68817981CF52D240072EDE
:10102000000C880B990B0E94120F9B01AC01C501AB
:10103000B4010E946610A70196010E94710FD801A9
:1010400018966D937D938D939C931B97C357DD4F9B
:1010500088829982AA82BB82CD58D240E9E2F2E02E
:10106000EC0FFD1F3296C455DD4FF983E883CC5A4F
:10107000D240CE54DD4F0883C25BD240CD54DD4F09
:101080001883C35BD24039C08335910509F4D7C4B6
:101090008735910509F021CFC655DD4FE881F981EB
:1010A000CA5AD240C056DD4FF983E883C05AD240B5
:1010B000CE55DD4FC880D980C25AD240ADC28E0114
:1010C0000F5F1E4FD80112968D919C911397892B1B
:1010D00019F0C8010E94C4020B5E1F4F02151305D0
:1010E00089F7CF5CDD4F68817981C153D240072EEB
:1010F000000C880B990B0E943902C55DDD4FA8805A
:10110000B980CB52D240C35DDD4FC880D980CD526B
:10111000D240C15DDD4FE880F980CF52D240B501A9
:10112000BB0C880B990B0E94120F9B01AC01882409
:101130008394912CCB57DD4F688179818A819B8183
:10114000C558D2400E940B0F882311F0812C912C9E
:10115000B601DD0C880B990B0E94120F9B01AC01AC
:1011600001E010E0C757DD4F688179818A819B815A
:10117000C958D2400E940B0F882311F000E010E004
:10118000800E911EB701FF0C880B990B0E94120F65
:101190009B01AC0101E010E0C357DD4F688179810C
:1011A0008A819B81CD58D2400E940B0F882311F079
:1011B00000E010E0080D191D0330110509F438C1D5
:1011C000CD5CDD4F68817981C353D240072E000C7E
:1011D000880B990B0E94120F20E030E048EC52E49B
:1011E0000E94D310CA55DD4F688379838A839B831D
:1011F000C65AD2408E010B571D4FC455DD4FE881B2
:10120000F981CC5AD240CC55DD4FF983E883C45ADA
:10121000D240CE54DD4FF881C25BD240C056DD4F84
:10122000F883C05AD240CD54DD4F2881C35BD240F1
:10123000CF55DD4F2883C15AD240C056DD4FA8811B
:10124000B981C05AD2402D913D914D915C91F801E8
:1012500060817181828193810E9466102B013C0123
:10126000D8016D937D938D939C931397CC55DD4F4F
:10127000E881F981C45AD24061917191CC55DD4F1A
:10128000F983E883C45AD240072E000C880B990BCF
:101290000E94120F4B015C019B01AC01C301B20122
:1012A0000E946610CA55DD4F288139814A815B81D1
:1012B000C65AD2400E94710F6B017C01C056DD4FAF
:1012C000A881B981C05AD2406D937D938D939D932F
:1012D000C056DD4FB983A883C05AD24020E030E029
:1012E000A901C301B2010E940B0F87FF05C0F801DD
:1012F000108211821282138220E030E04FE753E423
:10130000D8016D917D918D919C910E947411181658
:101310004CF480E090E0AFE7B3E4F8018083918380
:10132000A283B38320E030E0A901C701B6010E9487
:101330000B0F87FF11C020E030E040E85FEBC701F2
:10134000B6010E94741187FD16C0D8018D929D923E
:10135000AD92BC9213970FC020E030E040E85FE30D
:10136000C701B6010E940B0F18162CF0F8018082FD
:101370009182A282B3820C5F1F4FC055DD4F28813E
:101380003981C05BD2400217130709F056CF7101B3
:10139000AE014F5F5F4F6A01C70182199309CE55B5
:1013A000DD4F28813981C25AD240821793070CF051
:1013B00086CED601AD90BD906D01F70111917F01F0
:1013C000C357DD4F688179818A819B81CD58D24096
:1013D0000E944511062FC757DD4F688179818A81A8
:1013E0009B81C958D2400E944511262FCB57DD4F13
:1013F000688179818A819B81C558D240CC54DD4F68
:101400002883C45BD2400E944511462FCC54DD4F47
:101410002881C45BD240B50181E091E08C0F9D1F13
:10142000F5E11F9F800D911D11240E947302B4CF1E
:10143000C756DD4FA882C959D240C656DD4FC88273
:10144000CA59D240C556DD4FE882CB59D24045CD6E
:1014500071019E012F5F3F4F6901C70182199309F6
:10146000CE55DD4F48815981C25AD2408417950725
:101470000CF08AC0D601AD90BD906D01F7011191BD
:101480007F01C556DD4F6881CB59D24070E080E0C6
:1014900090E00E94120F2B013C01C15DDD4F68817D
:1014A0007981CF52D240072E000C880B990B0E94F5
:1014B000120F20E030E048EC52E40E94D3109B0170
:1014C000AC01C301B2010E94710F0E944511062FA9
:1014D000C656DD4F6881CA59D24070E080E090E086
:1014E0000E94120F2B013C01C35DDD4F68817981A1
:1014F000CD52D240072E000C880B990B0E94120F80
:1015000020E030E048EC52E40E94D3109B01AC0193
:10151000C301B2010E94710F0E944511962EC75659
:10152000DD4F6881C959D24070E080E090E00E94B0
:10153000120F2B013C01C55DDD4F68817981CB52D3
:10154000D240072E000C880B990B0E94120F20E04E
:1015500030E048EC52E40E94D3109B01AC01C3017F
:10156000B2010E94710F0E944511462F292DB5012D
:1015700081E091E08C0F9D1FF5E11F9F800D911D73
:1015800011240E94730269CF8E010F5F1E4FD80194
:1015900012968D919C911397892B19F0C8010E9486
:1015A000C4020B5E1F4F0215130589F796CCC114B8
:1015B000D104A9F5C755DE4F8881C95AD140698148
:1015C0007A81C15DDD4F0881CF52D240C35DDD4FCE
:1015D0002881CD52D240C55DDD4F4881CB52D240EB
:1015E000E1E0F1E0EC0FFD1F35E1839FE00DF11D1F
:1015F0001124CF010E94730271E0C71AD108C056AE
:10160000DD4F88819981C05AD2400297C056DD4F84
:1016100099838883C05AD240D7FEC9CFC0C1C05673
:10162000DD4FE881F981C05AD24032972081318163
:1016300049EA51E04C0F5D1F4C0D5D1DCA55DD4F51
:1016400059834883C65AD240FA0131978081EE24EB
:10165000E394FE2CEC0EFD1E55E1859FE00CF11C81
:101660001124D70112968D919C9113972817390751
:1016700008F00CC11D966C911D971A96BC91CC5523
:10168000DD4FB883C45AD240F70140855185878029
:10169000862F90E06B136BC08901000F111F020FA2
:1016A000131F040F151F882009F445C0912CA12C8D
:1016B000B12CF801E80FF91F608170E0762F6627E2
:1016C000072E000C880B990BA50194010E9479113B
:1016D000390155244424D7011B968C91F801E80F59
:1016E000F11D608170E0762F6627072E000C880BB5
:1016F000990BA50194010E947911B42FA32F922F69
:101700008827482A592A6A2A7B2AF7018485F80102
:10171000E80FF11D608170E0762F6627072E000C20
:10172000880B990BA50194010E947911422A532A32
:10173000642A752AAEC0F801E80FF91F8081D7012D
:101740001B969C911B97F801E90FF11D4080512CCD
:10175000612C712C762C652C542C4424682A1C9600
:101760008C91F801E80FF11D8081482A92C0220F68
:10177000331F220F331F8A01020F131F882009F421
:1017800061C0912CA12CB12CF801E80FF91F6081E8
:1017900070E0762F6627072E000C880B990BA501A9
:1017A00094010E947911722E662455244424F80174
:1017B000CC55DD4FB881C45AD240EB0FF11D60818A
:1017C00070E0762F6627072E000C880B990BA50179
:1017D00094010E947911D90199278827482A592A0A
:1017E0006A2A7B2AF7018485F801E80FF11D6081E0
:1017F00070E0762F6627072E000C880B990BA50149
:1018000094010E947911422A532A642A752AD70129
:101810001B968C91F801E80FF11D608170E0762F26
:101820006627072E000C880B990BA50194010E94D6
:101830007911B42FA32F922F8827482A592A6A2A70
:101840007B2A27C0F801E80FF91F8081F801CC55E9
:10185000DD4FB881C45AD240EB0FF11D4080512CAE
:10186000612C712C320155244424782AF701848597
:10187000F801E80FF11D8081482AD7011B968C9151
:10188000F801E80FF11D8081582A03C0412C512C2A
:101890003201C056DD4FE881F981C05AD240408103
:1018A0005181CA55DD4FA881B981C65AD2408C9169
:1018B000E1E0F1E0EC0FFD1FB5E18B9FE00DF11DC4
:1018C0001124828193814817590708F095CE43016E
:1018D000AA24BB24782D1127072DF62CE52CCC55F6
:1018E000DD4FE882C45AD240CA55DD4F4882C65AFD
:1018F000D2403781332399F0839EB0011124E39EB7
:10190000C0011124CC55DD4F9883C45AD240439E68
:10191000C0011124CA55DD4F9883C65AD24065854F
:10192000228580859185621308C09A01220F331F9A
:10193000420F531F840F951F15C0440F551F440FAE
:10194000551F840F951F472C552466247724AC011E
:10195000460F511D332321F0439E20011124452CB5
:10196000DA014C922285AC01420F511DDA017C93C1
:101970002385AC01420F511D9A01CC55DD4F4881A2
:10198000C45AD240D9014C932485FC01E20FF11DC9
:10199000CA55DD4F5881C65AD24050832DCE8E0194
:1019A0000F5F1E4FD80112968D919C911397892B32
:1019B00019F0C8010E94C4020B5E1F4F02151305E7
:1019C00089F78BCAC35DDD4F68817981CD52D240E2
:1019D000C55DDD4F28813981CB52D24015E1129F80
:1019E000C001139F900D1124CD5CDD4F0881C353BE
:1019F000D240CF5CDD4F2881C153D240C15DDD4F65
:101A00004881CF52D240E1E0F1E0EC0FFD1F8E0F94
:101A10009F1F0E947302C55DDD4F28813981CB5223
:101A2000D240129FC001139F900D112421E031E09C
:101A30002C0F3D1F820F931F0E94C4024ECA7101DA
:101A40009E012F5F3F4F6901C70182199309CE554F
:101A5000DD4F48815981C25AD24084179507BCF4A2
:101A6000D6016D917D916D01F70181917F0100E0BB
:101A700020E040E0A1E0B1E0AC0FBD1FE5E18E9FAA
:101A8000A00DB11D1124CD010E947302DDCFCE0146
:101A9000875D9D4F5C01C12CD12CCE55DD4F288137
:101AA0003981C25AD240C216D30624F08E010F5F8C
:101AB0001E4F5FC04601880C991CE12CF12CD5010A
:101AC00014968D919C911597E816F906B4F5F701D7
:101AD000EC0DFD1DA9EAB1E0AC0FBD1FEA0FFB1F25
:101AE0008081F701EE0FFF1FE80DF91D21E030E0C6
:101AF0002C0F3D1FE20FF31F60817181C556DD4F32
:101B00000881CB59D240C656DD4F2881CA59D240F0
:101B1000C756DD4F4881C959D240A1E0B1E0AC0FB2
:101B2000BD1FE5E18E9FA00DB11D1124CD010E94C6
:101B30007302FFEFEF1AFF0AC2CFB2E0AB0EB11C87
:101B4000C255DD4FE881F981CE5AD240AE16BF06AC
:101B500009F4ACCFC55DDD4F88819981CB52D2406D
:101B6000C80ED91E9ACF0B5E1F4F0215130509F43C
:101B7000B4C9D80112968D919C911397892B99F332
:101B8000C8010E94C402EFCF1F920F920FB60F92AE
:101B900011242F933F934F935F936F937F938F9372
:101BA0009F93AF93BF93EF93FF9384E291E00E94E2
:101BB0004401FF91EF91BF91AF919F918F917F91E0
:101BC0006F915F914F913F912F910F900FBE0F90AA
:101BD0001F9018951F920F920FB60F9211242F93FA
:101BE0008F939F93EF93FF93E0913401F091350130
:101BF0008081E0913A01F0913B0182FD12C0908119
:101C000080913D018F5F8F7320913E01821751F0CB
:101C1000E0913D01F0E0EC5DFE4F958F80933D013A
:101C200001C08081FF91EF919F918F912F910F9033
:101C30000FBE0F901F9018951F920F920FB60F9224
:101C400011242F933F938F939F93AF93BF938091D2
:101C50001C0190911D01A0911E01B0911F013091B6
:101C60001B0123E0230F2D3720F40196A11DB11D88
:101C700005C026E8230F0296A11DB11D20931B016C
:101C800080931C0190931D01A0931E01B0931F012E
:101C90008091200190912101A0912201B091230116
:101CA0000196A11DB11D8093200190932101A09365
:101CB0002201B0932301BF91AF919F918F913F91EA
:101CC0002F910F900FBE0F901F901895789484B5A8
:101CD000826084BD84B5816084BD85B5826085BD28
:101CE00085B5816085BDEEE6F0E08081816080830E
:101CF000E1E8F0E0108280818260808380818160F1
:101D00008083E0E8F0E0808181608083E1EBF0E0B7
:101D1000808184608083E0EBF0E08081816080835B
:101D2000EAE7F0E080818460808380818260808344
:101D30008081816080838081806880831092C1006F
:101D40000E947B05E4E2F1E01382128288EE93E0C8
:101D5000A0E0B0E084839583A683B7838AE091E016
:101D60009183808385EC90E09587848784EC90E074
:101D70009787868780EC90E0918B808B81EC90E058
:101D8000938B828B82EC90E0958B848B86EC90E039
:101D9000978B868B118E128E138E148E08951F933F
:101DA000FC0199278827BC01E89411911032E9F3CE
:101DB000193010F01E30C8F31B3251F01D3249F4B7
:101DC000689406C00E94F60E610F711D811D911D61
:101DD000119110531A30B0F33EF4909580957095A0
:101DE00061957F4F8F4F9F4F1F910895592F482F17
:101DF000372F262F660F771F881F991F660F771FB3
:101E0000881F991F620F731F841F951F660F771F0E
:101E1000881F991F08950E944D0F08F481E00895CE
:101E2000E89409C097FB3EF4909580957095619574
:101E30007F4F8F4F9F4F9923A9F0F92F96E9BB272A
:101E40009395F695879577956795B795F111F8CFA6
:101E5000FAF4BB0F11F460FF1BC06F5F7F4F8F4F11
:101E60009F4F16C0882311F096E911C0772321F007
:101E70009EE8872F762F05C0662371F096E8862F9F
:101E800070E060E02AF09A95660F771F881FDAF7F6
:101E9000880F9695879597F90895990F0008550F23
:101EA000AA0BE0E8FEEF16161706E807F907C0F0E0
:101EB00012161306E407F50798F0621B730B840BE8
:101EC000950B39F40A2661F0232B242B252B21F4C2
:101ED00008950A2609F4A140A6958FEF811D811D62
:101EE00008950E94840F0C94F50F0E94E70F38F0BC
:101EF0000E94EE0F20F0952311F00C94DE0F0C944D
:101F0000E40F11240C9429100E94061070F3959F81
:101F1000C1F3950F50E0551F629FF001729FBB27E0
:101F2000F00DB11D639FAA27F00DB11DAA1F649F7C
:101F30006627B00DA11D661F829F2227B00DA11D2F
:101F4000621F739FB00DA11D621F839FA00D611DB5
:101F5000221F749F3327A00D611D231F849F600DD6
:101F6000211D822F762F6A2F11249F5750409AF0FF
:101F7000F1F088234AF0EE0FFF1FBB1F661F771F8B
:101F8000881F91505040A9F79E3F510580F00C9456
:101F9000DE0F0C9429105F3FE4F3983ED4F386954E
:101FA00077956795B795F795E7959F5FC1F7FE2BF6
:101FB000880F911D9695879597F9089597F99F67D2
:101FC00080E870E060E008959FEF80EC08950024C1
:101FD0000A941616170618060906089500240A948E
:101FE00012161306140605060895092E0394000C14
:101FF00011F4882352F0BB0F40F4BF2B11F460FFA3
:1020000004C06F5F7F4F8F4F9F4F089557FD9058CB
:10201000440F551F59F05F3F71F04795880F97FBAC
:10202000991F61F09F3F79F0879508951216130666
:102030001406551FF2CF4695F1DF08C01616170695
:102040001806991FF1CF86957105610508940895CA
:10205000E894BB2766277727CB0197F908952F923D
:102060003F924F925F926F927F928F929F92AF9228
:10207000BF92CF92DF92EF92FF920F931F93CF9375
:10208000DF93CDB7DEB7CA1BDB0B0FB6F894DEBF0C
:102090000FBECDBF09942A88398848885F846E8432
:1020A0007D848C849B84AA84B984C884DF80EE807C
:1020B000FD800C811B81AA81B981CE0FD11D0FB685
:1020C000F894DEBF0FBECDBFED0108955058BB2779
:1020D000AA270E947E100C94F50F0E94E70F38F09B
:1020E0000E94EE0F20F039F49F3F19F426F40C946F
:1020F000E40F0EF4E095E7FB0C94DE0FE92F0E944D
:10210000061058F3BA17620773078407950720F083
:1021100079F4A6F50C9428100EF4E0950B2EBA2F46
:10212000A02D0B01B90190010C01CA01A0011124DD
:10213000FF27591B99F0593F50F4503E68F11A1689
:10214000F040A22F232F342F4427585FF3CF46951A
:1021500037952795A795F0405395C9F77EF41F163C
:10216000BA0B620B730B840BBAF09150A1F0FF0F06
:10217000BB1F661F771F881FC2F70EC0BA0F621FF2
:10218000731F841F48F4879577956795B795F795E2
:102190009E3F08F0B0CF9395880F08F09927EE0F77
:1021A0009795879508950E94E7100C94F50F0E946B
:1021B000EE0F58F00E94E70F40F029F45F3F29F03E
:1021C0000C94DE0F51110C9429100C94E40F0E9412
:1021D000061068F39923B1F3552391F3951B550B22
:1021E000BB27AA2762177307840738F09F5F5F4FEA
:1021F000220F331F441FAA1FA9F335D00E2E3AF029
:10220000E0E832D091505040E695001CCAF72BD040
:10221000FE2F29D0660F771F881FBB1F2617370791
:102220004807AB07B0E809F0BB0B802DBF01FF27C3
:1022300093585F4F3AF09E3F510578F00C94DE0FB3
:102240000C9429105F3FE4F3983ED4F3869577957C
:102250006795B795F7959F5FC9F7880F911D96957C
:10226000879597F90895E1E0660F771F881FBB1FD8
:10227000621773078407BA0720F0621B730B840B85
:10228000BA0BEE1F88F7E09508950E940E1088F0B3
:102290009F5798F0B92F9927B751B0F0E1F0660F2A
:1022A000771F881F991F1AF0BA95C9F714C0B1306B
:1022B00091F00E942810B1E008950C942810672F27
:1022C000782F8827B85F39F0B93FCCF3869577959A
:1022D0006795B395D9F73EF4909580957095619583
:1022E0007F4F8F4F9F4F08950E944D0F08F48FEF3F
:1022F0000895A1E21A2EAA1BBB1BFD010DC0AA1F47
:10230000BB1FEE1FFF1FA217B307E407F50720F05E
:10231000A21BB30BE40BF50B661F771F881F991FD9
:102320001A9469F760957095809590959B01AC0122
:10233000BD01CF010895EE0FFF1F0590F491E02D30
:102340000994CF93DF938230910510F482E090E0FE
:10235000E091C301F091C40120E030E0C0E0D0E0A2
:10236000309711F14081518148175907C0F0481743
:10237000590761F482819381209719F09B838A83A6
:102380002BC09093C4018093C30126C02115310551
:1023900019F04217530718F49A01BE01DF01EF014B
:1023A0000280F381E02DDCCF2115310509F1281BD6
:1023B000390B2430310590F412968D919C9113972E
:1023C0006115710521F0FB019383828304C0909312
:1023D000C4018093C301FD01329644C0FD01E20FA8
:1023E000F31F81939193225031092D933C933AC06E
:1023F0002091C1013091C201232B41F420910201AF
:10240000309103013093C2012093C101209100015A
:10241000309101012115310541F42DB73EB74091AE
:10242000040150910501241B350BE091C101F0918D
:10243000C201E217F307A0F42E1B3F0B2817390740
:1024400078F0AC014E5F5F4F2417350748F04E0F10
:102450005F1F5093C2014093C1018193919302C0C9
:10246000E0E0F0E0CF01DF91CF9108950F931F934B
:10247000CF93DF93009709F48CC0FC01329713824D
:1024800012820091C3011091C4010115110581F45C
:1024900020813181820F931F2091C1013091C201AF
:1024A0002817390779F5F093C201E093C10171C093
:1024B000D80140E050E0AE17BF0750F412962D91BE
:1024C0003C911397AD012115310509F1D901F3CFE5
:1024D0009D01DA013383228360817181860F971F0A
:1024E0008217930769F4EC0128813981260F371F81
:1024F0002E5F3F4F318320838A819B819383828328
:10250000452B29F4F093C401E093C30142C0139614
:10251000FC93EE931297ED01499159919E01240F7E
:10252000351FE217F30771F480819181840F951FA5
:10253000029611969C938E938281938113969C931D
:102540008E931297E0E0F0E0D80112968D919C9165
:102550001397009719F0F8018C01F6CF8D919C919B
:1025600098012E5F3F4F820F931F2091C101309140
:10257000C2012817390769F4309729F41092C40171
:102580001092C30102C0138212821093C201009301
:10259000C101DF91CF911F910F910895A0E0B0E0AC
:1025A000E4EDF2E10C943310EC01009721F4CB013F
:1025B0000E94A111B8C0FC01E60FF71F9C01225038
:1025C0003109E217F30708F4ACC0D9010D911C9151
:1025D000119706171707B0F00530110508F49FC0D2
:1025E000C80104978617970708F499C0025011098B
:1025F000061B170B019311936D937C93CF010E94DF
:1026000036128DC05B01A01AB10A4C01800E911EDA
:10261000A091C301B091C40140E050E0E12CF12C45
:10262000109709F44AC0A815B905D1F56D907C90B2
:102630001197630182E0C80ED11CCA14DB0480F13B
:10264000A3014A195B096A0182E0C80ED11C1296E7
:10265000BC9012971396AC91B5E0CB16D10440F024
:10266000B282A38351834083D9016D937C930AC0C6
:102670000E5F1F4FC301800F911FF901918380836B
:10268000EB2DFA2FE114F10431F0D7011396FC93EE
:10269000EE93129744C0F093C401E093C3013FC08E
:1026A0008D919C9111974817590708F4AC017D0151
:1026B00012960D90BC91A02DB3CF8091C101909145
:1026C000C20188159905E1F446175707C8F48091AF
:1026D000000190910101009741F48DB79EB74091A0
:1026E000040150910501841B950BE817F907C8F404
:1026F000F093C201E093C101F901718360830FC0BF
:10270000CB010E94A1117C01009759F0A801BE01E4
:102710000E949D13CE010E943612C70104C0CE0153
:1027200002C080E090E0CDB7DEB7EEE00C944F1031
:1027300081E090E0F8940C94B413FB01DC0102C03A
:1027400001900D9241505040D8F70895DC0101C02E
:102750006D9341505040E0F70895FB01DC0101907A
:0C2760000D920020E1F70895F894FFCFDF
:10276C000000C5018000000000006501CE00FD00E6
:0A277C00AC012E010C0120015200F7
:00000001FF
